{"abi":[{"type":"constructor","inputs":[],"stateMutability":"nonpayable"},{"type":"function","name":"approve","inputs":[{"name":"to","type":"address","internalType":"address"},{"name":"tokenId","type":"uint256","internalType":"uint256"}],"outputs":[],"stateMutability":"nonpayable"},{"type":"function","name":"balanceOf","inputs":[{"name":"owner","type":"address","internalType":"address"}],"outputs":[{"name":"","type":"uint256","internalType":"uint256"}],"stateMutability":"view"},{"type":"function","name":"getApproved","inputs":[{"name":"tokenId","type":"uint256","internalType":"uint256"}],"outputs":[{"name":"","type":"address","internalType":"address"}],"stateMutability":"view"},{"type":"function","name":"getRWATokenId","inputs":[],"outputs":[{"name":"","type":"uint256","internalType":"uint256"}],"stateMutability":"pure"},{"type":"function","name":"getRWATokenOwner","inputs":[],"outputs":[{"name":"","type":"address","internalType":"address"}],"stateMutability":"view"},{"type":"function","name":"isApprovedForAll","inputs":[{"name":"owner","type":"address","internalType":"address"},{"name":"operator","type":"address","internalType":"address"}],"outputs":[{"name":"","type":"bool","internalType":"bool"}],"stateMutability":"view"},{"type":"function","name":"isRWATokenOwner","inputs":[{"name":"account","type":"address","internalType":"address"}],"outputs":[{"name":"","type":"bool","internalType":"bool"}],"stateMutability":"view"},{"type":"function","name":"name","inputs":[],"outputs":[{"name":"","type":"string","internalType":"string"}],"stateMutability":"view"},{"type":"function","name":"owner","inputs":[],"outputs":[{"name":"","type":"address","internalType":"address"}],"stateMutability":"view"},{"type":"function","name":"ownerOf","inputs":[{"name":"tokenId","type":"uint256","internalType":"uint256"}],"outputs":[{"name":"","type":"address","internalType":"address"}],"stateMutability":"view"},{"type":"function","name":"renounceOwnership","inputs":[],"outputs":[],"stateMutability":"nonpayable"},{"type":"function","name":"safeTransferFrom","inputs":[{"name":"from","type":"address","internalType":"address"},{"name":"to","type":"address","internalType":"address"},{"name":"tokenId","type":"uint256","internalType":"uint256"}],"outputs":[],"stateMutability":"nonpayable"},{"type":"function","name":"safeTransferFrom","inputs":[{"name":"from","type":"address","internalType":"address"},{"name":"to","type":"address","internalType":"address"},{"name":"tokenId","type":"uint256","internalType":"uint256"},{"name":"data","type":"bytes","internalType":"bytes"}],"outputs":[],"stateMutability":"nonpayable"},{"type":"function","name":"setApprovalForAll","inputs":[{"name":"operator","type":"address","internalType":"address"},{"name":"approved","type":"bool","internalType":"bool"}],"outputs":[],"stateMutability":"nonpayable"},{"type":"function","name":"supportsInterface","inputs":[{"name":"interfaceId","type":"bytes4","internalType":"bytes4"}],"outputs":[{"name":"","type":"bool","internalType":"bool"}],"stateMutability":"view"},{"type":"function","name":"symbol","inputs":[],"outputs":[{"name":"","type":"string","internalType":"string"}],"stateMutability":"view"},{"type":"function","name":"tokenURI","inputs":[{"name":"tokenId","type":"uint256","internalType":"uint256"}],"outputs":[{"name":"","type":"string","internalType":"string"}],"stateMutability":"view"},{"type":"function","name":"transferFrom","inputs":[{"name":"from","type":"address","internalType":"address"},{"name":"to","type":"address","internalType":"address"},{"name":"tokenId","type":"uint256","internalType":"uint256"}],"outputs":[],"stateMutability":"nonpayable"},{"type":"function","name":"transferOwnership","inputs":[{"name":"newOwner","type":"address","internalType":"address"}],"outputs":[],"stateMutability":"nonpayable"},{"type":"event","name":"Approval","inputs":[{"name":"owner","type":"address","indexed":true,"internalType":"address"},{"name":"approved","type":"address","indexed":true,"internalType":"address"},{"name":"tokenId","type":"uint256","indexed":true,"internalType":"uint256"}],"anonymous":false},{"type":"event","name":"ApprovalForAll","inputs":[{"name":"owner","type":"address","indexed":true,"internalType":"address"},{"name":"operator","type":"address","indexed":true,"internalType":"address"},{"name":"approved","type":"bool","indexed":false,"internalType":"bool"}],"anonymous":false},{"type":"event","name":"OwnershipTransferred","inputs":[{"name":"previousOwner","type":"address","indexed":true,"internalType":"address"},{"name":"newOwner","type":"address","indexed":true,"internalType":"address"}],"anonymous":false},{"type":"event","name":"Transfer","inputs":[{"name":"from","type":"address","indexed":true,"internalType":"address"},{"name":"to","type":"address","indexed":true,"internalType":"address"},{"name":"tokenId","type":"uint256","indexed":true,"internalType":"uint256"}],"anonymous":false},{"type":"error","name":"ERC721IncorrectOwner","inputs":[{"name":"sender","type":"address","internalType":"address"},{"name":"tokenId","type":"uint256","internalType":"uint256"},{"name":"owner","type":"address","internalType":"address"}]},{"type":"error","name":"ERC721InsufficientApproval","inputs":[{"name":"operator","type":"address","internalType":"address"},{"name":"tokenId","type":"uint256","internalType":"uint256"}]},{"type":"error","name":"ERC721InvalidApprover","inputs":[{"name":"approver","type":"address","internalType":"address"}]},{"type":"error","name":"ERC721InvalidOperator","inputs":[{"name":"operator","type":"address","internalType":"address"}]},{"type":"error","name":"ERC721InvalidOwner","inputs":[{"name":"owner","type":"address","internalType":"address"}]},{"type":"error","name":"ERC721InvalidReceiver","inputs":[{"name":"receiver","type":"address","internalType":"address"}]},{"type":"error","name":"ERC721InvalidSender","inputs":[{"name":"sender","type":"address","internalType":"address"}]},{"type":"error","name":"ERC721NonexistentToken","inputs":[{"name":"tokenId","type":"uint256","internalType":"uint256"}]},{"type":"error","name":"OwnableInvalidOwner","inputs":[{"name":"owner","type":"address","internalType":"address"}]},{"type":"error","name":"OwnableUnauthorizedAccount","inputs":[{"name":"account","type":"address","internalType":"address"}]}],"bytecode":{"object":"0x608060405234801562000010575f80fd5b50336040518060400160405280601281526020017f536f7665726569676e205257415469746c6500000000000000000000000000008152506040518060400160405280600481526020017f5352574100000000000000000000000000000000000000000000000000000000815250815f90816200008e919062000c9b565b508060019081620000a0919062000c9b565b5050505f73ffffffffffffffffffffffffffffffffffffffff168173ffffffffffffffffffffffffffffffffffffffff160362000116575f6040517f1e4fbdf70000000000000000000000000000000000000000000000000000000081526004016200010d919062000dc2565b60405180910390fd5b62000127816200014160201b60201c565b506200013b3360016200020460201b60201c565b62000e34565b5f60065f9054906101000a900473ffffffffffffffffffffffffffffffffffffffff1690508160065f6101000a81548173ffffffffffffffffffffffffffffffffffffffff021916908373ffffffffffffffffffffffffffffffffffffffff1602179055508173ffffffffffffffffffffffffffffffffffffffff168173ffffffffffffffffffffffffffffffffffffffff167f8be0079c531659141344cd1fd0a4f28419497f9722a3daafe3b4186f6b6457e060405160405180910390a35050565b5f73ffffffffffffffffffffffffffffffffffffffff168273ffffffffffffffffffffffffffffffffffffffff160362000277575f6040517f64a0ae920000000000000000000000000000000000000000000000000000000081526004016200026e919062000dc2565b60405180910390fd5b5f6200028b83835f6200030560201b60201c565b90505f73ffffffffffffffffffffffffffffffffffffffff168173ffffffffffffffffffffffffffffffffffffffff161462000300575f6040517f73c6ac6e000000000000000000000000000000000000000000000000000000008152600401620002f7919062000dc2565b60405180910390fd5b505050565b5f8062000318846200052b60201b60201c565b90505f73ffffffffffffffffffffffffffffffffffffffff168373ffffffffffffffffffffffffffffffffffffffff16146200036257620003618184866200056460201b60201c565b5b5f73ffffffffffffffffffffffffffffffffffffffff168173ffffffffffffffffffffffffffffffffffffffff1614620003f657620003aa5f855f806200063560201b60201c565b600160035f8373ffffffffffffffffffffffffffffffffffffffff1673ffffffffffffffffffffffffffffffffffffffff1681526020019081526020015f205f82825403925050819055505b5f73ffffffffffffffffffffffffffffffffffffffff168573ffffffffffffffffffffffffffffffffffffffff16146200047657600160035f8773ffffffffffffffffffffffffffffffffffffffff1673ffffffffffffffffffffffffffffffffffffffff1681526020019081526020015f205f82825401925050819055505b8460025f8681526020019081526020015f205f6101000a81548173ffffffffffffffffffffffffffffffffffffffff021916908373ffffffffffffffffffffffffffffffffffffffff160217905550838573ffffffffffffffffffffffffffffffffffffffff168273ffffffffffffffffffffffffffffffffffffffff167fddf252ad1be2c89b69c2b068fc378daa952ba7f163c4a11628f55a4df523b3ef60405160405180910390a4809150509392505050565b5f60025f8381526020019081526020015f205f9054906101000a900473ffffffffffffffffffffffffffffffffffffffff169050919050565b620005778383836200080c60201b60201c565b62000630575f73ffffffffffffffffffffffffffffffffffffffff168373ffffffffffffffffffffffffffffffffffffffff1603620005ef57806040517f7e273289000000000000000000000000000000000000000000000000000000008152600401620005e6919062000dee565b60405180910390fd5b81816040517f177e802f0000000000000000000000000000000000000000000000000000000081526004016200062792919062000e09565b60405180910390fd5b505050565b80806200066e57505f73ffffffffffffffffffffffffffffffffffffffff168273ffffffffffffffffffffffffffffffffffffffff1614155b15620007b7575f6200068684620008df60201b60201c565b90505f73ffffffffffffffffffffffffffffffffffffffff168373ffffffffffffffffffffffffffffffffffffffff1614158015620006f157508273ffffffffffffffffffffffffffffffffffffffff168173ffffffffffffffffffffffffffffffffffffffff1614155b80156200070d57506200070b81846200097060201b60201c565b155b156200075257826040517fa9fbf51f00000000000000000000000000000000000000000000000000000000815260040162000749919062000dc2565b60405180910390fd5b8115620007b557838573ffffffffffffffffffffffffffffffffffffffff168273ffffffffffffffffffffffffffffffffffffffff167f8c5be1e5ebec7d5bd14f71427d1e84f3dd0314c0f7b2291e5b200ac8c7c3b92560405160405180910390a45b505b8360045f8581526020019081526020015f205f6101000a81548173ffffffffffffffffffffffffffffffffffffffff021916908373ffffffffffffffffffffffffffffffffffffffff16021790555050505050565b5f8073ffffffffffffffffffffffffffffffffffffffff168373ffffffffffffffffffffffffffffffffffffffff1614158015620008d657508273ffffffffffffffffffffffffffffffffffffffff168473ffffffffffffffffffffffffffffffffffffffff1614806200088e57506200088d84846200097060201b60201c565b5b80620008d557508273ffffffffffffffffffffffffffffffffffffffff16620008bd83620009fe60201b60201c565b73ffffffffffffffffffffffffffffffffffffffff16145b5b90509392505050565b5f80620008f2836200052b60201b60201c565b90505f73ffffffffffffffffffffffffffffffffffffffff168173ffffffffffffffffffffffffffffffffffffffff16036200096757826040517f7e2732890000000000000000000000000000000000000000000000000000000081526004016200095e919062000dee565b60405180910390fd5b80915050919050565b5f60055f8473ffffffffffffffffffffffffffffffffffffffff1673ffffffffffffffffffffffffffffffffffffffff1681526020019081526020015f205f8373ffffffffffffffffffffffffffffffffffffffff1673ffffffffffffffffffffffffffffffffffffffff1681526020019081526020015f205f9054906101000a900460ff16905092915050565b5f60045f8381526020019081526020015f205f9054906101000a900473ffffffffffffffffffffffffffffffffffffffff169050919050565b5f81519050919050565b7f4e487b71000000000000000000000000000000000000000000000000000000005f52604160045260245ffd5b7f4e487b71000000000000000000000000000000000000000000000000000000005f52602260045260245ffd5b5f600282049050600182168062000ab357607f821691505b60208210810362000ac95762000ac862000a6e565b5b50919050565b5f819050815f5260205f209050919050565b5f6020601f8301049050919050565b5f82821b905092915050565b5f6008830262000b2d7fffffffffffffffffffffffffffffffffffffffffffffffffffffffffffffffff8262000af0565b62000b39868362000af0565b95508019841693508086168417925050509392505050565b5f819050919050565b5f819050919050565b5f62000b8362000b7d62000b778462000b51565b62000b5a565b62000b51565b9050919050565b5f819050919050565b62000b9e8362000b63565b62000bb662000bad8262000b8a565b84845462000afc565b825550505050565b5f90565b62000bcc62000bbe565b62000bd981848462000b93565b505050565b5b8181101562000c005762000bf45f8262000bc2565b60018101905062000bdf565b5050565b601f82111562000c4f5762000c198162000acf565b62000c248462000ae1565b8101602085101562000c34578190505b62000c4c62000c438562000ae1565b83018262000bde565b50505b505050565b5f82821c905092915050565b5f62000c715f198460080262000c54565b1980831691505092915050565b5f62000c8b838362000c60565b9150826002028217905092915050565b62000ca68262000a37565b67ffffffffffffffff81111562000cc25762000cc162000a41565b5b62000cce825462000a9b565b62000cdb82828562000c04565b5f60209050601f83116001811462000d11575f841562000cfc578287015190505b62000d08858262000c7e565b86555062000d77565b601f19841662000d218662000acf565b5f5b8281101562000d4a5784890151825560018201915060208501945060208101905062000d23565b8683101562000d6a578489015162000d66601f89168262000c60565b8355505b6001600288020188555050505b505050505050565b5f73ffffffffffffffffffffffffffffffffffffffff82169050919050565b5f62000daa8262000d7f565b9050919050565b62000dbc8162000d9e565b82525050565b5f60208201905062000dd75f83018462000db1565b92915050565b62000de88162000b51565b82525050565b5f60208201905062000e035f83018462000ddd565b92915050565b5f60408201905062000e1e5f83018562000db1565b62000e2d602083018462000ddd565b9392505050565b611f438062000e425f395ff3fe608060405234801561000f575f80fd5b506004361061011f575f3560e01c8063715018a6116100ab578063bea1280b1161006f578063bea1280b14610303578063c87b56dd14610321578063e6c7023114610351578063e985e9c51461036f578063f2fde38b1461039f5761011f565b8063715018a6146102855780638da5cb5b1461028f57806395d89b41146102ad578063a22cb465146102cb578063b88d4fde146102e75761011f565b806323b872dd116100f257806323b872dd146101bd57806342842e0e146101d95780635b229d3a146101f55780636352211e1461022557806370a08231146102555761011f565b806301ffc9a71461012357806306fdde0314610153578063081812fc14610171578063095ea7b3146101a1575b5f80fd5b61013d600480360381019061013891906117d4565b6103bb565b60405161014a9190611819565b60405180910390f35b61015b61049c565b60405161016891906118bc565b60405180910390f35b61018b6004803603810190610186919061190f565b61052b565b6040516101989190611979565b60405180910390f35b6101bb60048036038101906101b691906119bc565b610546565b005b6101d760048036038101906101d291906119fa565b61055c565b005b6101f360048036038101906101ee91906119fa565b61065b565b005b61020f600480360381019061020a9190611a4a565b61067a565b60405161021c9190611819565b60405180910390f35b61023f600480360381019061023a919061190f565b6106ba565b60405161024c9190611979565b60405180910390f35b61026f600480360381019061026a9190611a4a565b6106cb565b60405161027c9190611a84565b60405180910390f35b61028d610781565b005b610297610794565b6040516102a49190611979565b60405180910390f35b6102b56107bc565b6040516102c291906118bc565b60405180910390f35b6102e560048036038101906102e09190611ac7565b61084c565b005b61030160048036038101906102fc9190611c31565b610862565b005b61030b610887565b6040516103189190611a84565b60405180910390f35b61033b6004803603810190610336919061190f565b61088f565b60405161034891906118bc565b60405180910390f35b6103596108f5565b6040516103669190611979565b60405180910390f35b61038960048036038101906103849190611cb1565b610905565b6040516103969190611819565b60405180910390f35b6103b960048036038101906103b49190611a4a565b610993565b005b5f7f80ac58cd000000000000000000000000000000000000000000000000000000007bffffffffffffffffffffffffffffffffffffffffffffffffffffffff1916827bffffffffffffffffffffffffffffffffffffffffffffffffffffffff1916148061048557507f5b5e139f000000000000000000000000000000000000000000000000000000007bffffffffffffffffffffffffffffffffffffffffffffffffffffffff1916827bffffffffffffffffffffffffffffffffffffffffffffffffffffffff1916145b80610495575061049482610a17565b5b9050919050565b60605f80546104aa90611d1c565b80601f01602080910402602001604051908101604052809291908181526020018280546104d690611d1c565b80156105215780601f106104f857610100808354040283529160200191610521565b820191905f5260205f20905b81548152906001019060200180831161050457829003601f168201915b5050505050905090565b5f61053582610a80565b5061053f82610b06565b9050919050565b6105588282610553610b3f565b610b46565b5050565b5f73ffffffffffffffffffffffffffffffffffffffff168273ffffffffffffffffffffffffffffffffffffffff16036105cc575f6040517f64a0ae920000000000000000000000000000000000000000000000000000000081526004016105c39190611979565b60405180910390fd5b5f6105df83836105da610b3f565b610b58565b90508373ffffffffffffffffffffffffffffffffffffffff168173ffffffffffffffffffffffffffffffffffffffff1614610655578382826040517f64283d7b00000000000000000000000000000000000000000000000000000000815260040161064c93929190611d4c565b60405180910390fd5b50505050565b61067583838360405180602001604052805f815250610862565b505050565b5f8173ffffffffffffffffffffffffffffffffffffffff1661069c60016106ba565b73ffffffffffffffffffffffffffffffffffffffff16149050919050565b5f6106c482610a80565b9050919050565b5f8073ffffffffffffffffffffffffffffffffffffffff168273ffffffffffffffffffffffffffffffffffffffff160361073c575f6040517f89c62b640000000000000000000000000000000000000000000000000000000081526004016107339190611979565b60405180910390fd5b60035f8373ffffffffffffffffffffffffffffffffffffffff1673ffffffffffffffffffffffffffffffffffffffff1681526020019081526020015f20549050919050565b610789610d63565b6107925f610dea565b565b5f60065f9054906101000a900473ffffffffffffffffffffffffffffffffffffffff16905090565b6060600180546107cb90611d1c565b80601f01602080910402602001604051908101604052809291908181526020018280546107f790611d1c565b80156108425780601f1061081957610100808354040283529160200191610842565b820191905f5260205f20905b81548152906001019060200180831161082557829003601f168201915b5050505050905090565b61085e610857610b3f565b8383610ead565b5050565b61086d84848461055c565b610881610878610b3f565b85858585611016565b50505050565b5f6001905090565b606061089a82610a80565b505f6108a46111c2565b90505f8151116108c25760405180602001604052805f8152506108ed565b806108cc846111d8565b6040516020016108dd929190611dbb565b6040516020818303038152906040525b915050919050565b5f61090060016106ba565b905090565b5f60055f8473ffffffffffffffffffffffffffffffffffffffff1673ffffffffffffffffffffffffffffffffffffffff1681526020019081526020015f205f8373ffffffffffffffffffffffffffffffffffffffff1673ffffffffffffffffffffffffffffffffffffffff1681526020019081526020015f205f9054906101000a900460ff16905092915050565b61099b610d63565b5f73ffffffffffffffffffffffffffffffffffffffff168173ffffffffffffffffffffffffffffffffffffffff1603610a0b575f6040517f1e4fbdf7000000000000000000000000000000000000000000000000000000008152600401610a029190611979565b60405180910390fd5b610a1481610dea565b50565b5f7f01ffc9a7000000000000000000000000000000000000000000000000000000007bffffffffffffffffffffffffffffffffffffffffffffffffffffffff1916827bffffffffffffffffffffffffffffffffffffffffffffffffffffffff1916149050919050565b5f80610a8b836112a2565b90505f73ffffffffffffffffffffffffffffffffffffffff168173ffffffffffffffffffffffffffffffffffffffff1603610afd57826040517f7e273289000000000000000000000000000000000000000000000000000000008152600401610af49190611a84565b60405180910390fd5b80915050919050565b5f60045f8381526020019081526020015f205f9054906101000a900473ffffffffffffffffffffffffffffffffffffffff169050919050565b5f33905090565b610b5383838360016112db565b505050565b5f80610b63846112a2565b90505f73ffffffffffffffffffffffffffffffffffffffff168373ffffffffffffffffffffffffffffffffffffffff1614610ba457610ba381848661149a565b5b5f73ffffffffffffffffffffffffffffffffffffffff168173ffffffffffffffffffffffffffffffffffffffff1614610c2f57610be35f855f806112db565b600160035f8373ffffffffffffffffffffffffffffffffffffffff1673ffffffffffffffffffffffffffffffffffffffff1681526020019081526020015f205f82825403925050819055505b5f73ffffffffffffffffffffffffffffffffffffffff168573ffffffffffffffffffffffffffffffffffffffff1614610cae57600160035f8773ffffffffffffffffffffffffffffffffffffffff1673ffffffffffffffffffffffffffffffffffffffff1681526020019081526020015f205f82825401925050819055505b8460025f8681526020019081526020015f205f6101000a81548173ffffffffffffffffffffffffffffffffffffffff021916908373ffffffffffffffffffffffffffffffffffffffff160217905550838573ffffffffffffffffffffffffffffffffffffffff168273ffffffffffffffffffffffffffffffffffffffff167fddf252ad1be2c89b69c2b068fc378daa952ba7f163c4a11628f55a4df523b3ef60405160405180910390a4809150509392505050565b610d6b610b3f565b73ffffffffffffffffffffffffffffffffffffffff16610d89610794565b73ffffffffffffffffffffffffffffffffffffffff1614610de857610dac610b3f565b6040517f118cdaa7000000000000000000000000000000000000000000000000000000008152600401610ddf9190611979565b60405180910390fd5b565b5f60065f9054906101000a900473ffffffffffffffffffffffffffffffffffffffff1690508160065f6101000a81548173ffffffffffffffffffffffffffffffffffffffff021916908373ffffffffffffffffffffffffffffffffffffffff1602179055508173ffffffffffffffffffffffffffffffffffffffff168173ffffffffffffffffffffffffffffffffffffffff167f8be0079c531659141344cd1fd0a4f28419497f9722a3daafe3b4186f6b6457e060405160405180910390a35050565b5f73ffffffffffffffffffffffffffffffffffffffff168273ffffffffffffffffffffffffffffffffffffffff1603610f1d57816040517f5b08ba18000000000000000000000000000000000000000000000000000000008152600401610f149190611979565b60405180910390fd5b8060055f8573ffffffffffffffffffffffffffffffffffffffff1673ffffffffffffffffffffffffffffffffffffffff1681526020019081526020015f205f8473ffffffffffffffffffffffffffffffffffffffff1673ffffffffffffffffffffffffffffffffffffffff1681526020019081526020015f205f6101000a81548160ff0219169083151502179055508173ffffffffffffffffffffffffffffffffffffffff168373ffffffffffffffffffffffffffffffffffffffff167f17307eab39ab6107e8899845ad3d59bd9653f200f220920489ca2b5937696c31836040516110099190611819565b60405180910390a3505050565b5f8373ffffffffffffffffffffffffffffffffffffffff163b11156111bb578273ffffffffffffffffffffffffffffffffffffffff1663150b7a02868685856040518563ffffffff1660e01b81526004016110749493929190611e30565b6020604051808303815f875af19250505080156110af57506040513d601f19601f820116820180604052508101906110ac9190611e8e565b60015b611130573d805f81146110dd576040519150601f19603f3d011682016040523d82523d5f602084013e6110e2565b606091505b505f81510361112857836040517f64a0ae9200000000000000000000000000000000000000000000000000000000815260040161111f9190611979565b60405180910390fd5b805160208201fd5b63150b7a0260e01b7bffffffffffffffffffffffffffffffffffffffffffffffffffffffff1916817bffffffffffffffffffffffffffffffffffffffffffffffffffffffff1916146111b957836040517f64a0ae920000000000000000000000000000000000000000000000000000000081526004016111b09190611979565b60405180910390fd5b505b5050505050565b606060405180602001604052805f815250905090565b60605f60016111e68461155d565b0190505f8167ffffffffffffffff81111561120457611203611b0d565b5b6040519080825280601f01601f1916602001820160405280156112365781602001600182028036833780820191505090505b5090505f82602083010190505b600115611297578080600190039150507f3031323334353637383961626364656600000000000000000000000000000000600a86061a8153600a858161128c5761128b611eb9565b5b0494505f8503611243575b819350505050919050565b5f60025f8381526020019081526020015f205f9054906101000a900473ffffffffffffffffffffffffffffffffffffffff169050919050565b808061131357505f73ffffffffffffffffffffffffffffffffffffffff168273ffffffffffffffffffffffffffffffffffffffff1614155b15611445575f61132284610a80565b90505f73ffffffffffffffffffffffffffffffffffffffff168373ffffffffffffffffffffffffffffffffffffffff161415801561138c57508273ffffffffffffffffffffffffffffffffffffffff168173ffffffffffffffffffffffffffffffffffffffff1614155b801561139f575061139d8184610905565b155b156113e157826040517fa9fbf51f0000000000000000000000000000000000000000000000000000000081526004016113d89190611979565b60405180910390fd5b811561144357838573ffffffffffffffffffffffffffffffffffffffff168273ffffffffffffffffffffffffffffffffffffffff167f8c5be1e5ebec7d5bd14f71427d1e84f3dd0314c0f7b2291e5b200ac8c7c3b92560405160405180910390a45b505b8360045f8581526020019081526020015f205f6101000a81548173ffffffffffffffffffffffffffffffffffffffff021916908373ffffffffffffffffffffffffffffffffffffffff16021790555050505050565b6114a58383836116ae565b611558575f73ffffffffffffffffffffffffffffffffffffffff168373ffffffffffffffffffffffffffffffffffffffff160361151957806040517f7e2732890000000000000000000000000000000000000000000000000000000081526004016115109190611a84565b60405180910390fd5b81816040517f177e802f00000000000000000000000000000000000000000000000000000000815260040161154f929190611ee6565b60405180910390fd5b505050565b5f805f90507a184f03e93ff9f4daa797ed6e38ed64bf6a1f01000000000000000083106115b9577a184f03e93ff9f4daa797ed6e38ed64bf6a1f01000000000000000083816115af576115ae611eb9565b5b0492506040810190505b6d04ee2d6d415b85acef810000000083106115f6576d04ee2d6d415b85acef810000000083816115ec576115eb611eb9565b5b0492506020810190505b662386f26fc10000831061162557662386f26fc10000838161161b5761161a611eb9565b5b0492506010810190505b6305f5e100831061164e576305f5e100838161164457611643611eb9565b5b0492506008810190505b612710831061167357612710838161166957611668611eb9565b5b0492506004810190505b60648310611696576064838161168c5761168b611eb9565b5b0492506002810190505b600a83106116a5576001810190505b80915050919050565b5f8073ffffffffffffffffffffffffffffffffffffffff168373ffffffffffffffffffffffffffffffffffffffff161415801561176557508273ffffffffffffffffffffffffffffffffffffffff168473ffffffffffffffffffffffffffffffffffffffff16148061172657506117258484610905565b5b8061176457508273ffffffffffffffffffffffffffffffffffffffff1661174c83610b06565b73ffffffffffffffffffffffffffffffffffffffff16145b5b90509392505050565b5f604051905090565b5f80fd5b5f80fd5b5f7fffffffff0000000000000000000000000000000000000000000000000000000082169050919050565b6117b38161177f565b81146117bd575f80fd5b50565b5f813590506117ce816117aa565b92915050565b5f602082840312156117e9576117e8611777565b5b5f6117f6848285016117c0565b91505092915050565b5f8115159050919050565b611813816117ff565b82525050565b5f60208201905061182c5f83018461180a565b92915050565b5f81519050919050565b5f82825260208201905092915050565b5f5b8381101561186957808201518184015260208101905061184e565b5f8484015250505050565b5f601f19601f8301169050919050565b5f61188e82611832565b611898818561183c565b93506118a881856020860161184c565b6118b181611874565b840191505092915050565b5f6020820190508181035f8301526118d48184611884565b905092915050565b5f819050919050565b6118ee816118dc565b81146118f8575f80fd5b50565b5f81359050611909816118e5565b92915050565b5f6020828403121561192457611923611777565b5b5f611931848285016118fb565b91505092915050565b5f73ffffffffffffffffffffffffffffffffffffffff82169050919050565b5f6119638261193a565b9050919050565b61197381611959565b82525050565b5f60208201905061198c5f83018461196a565b92915050565b61199b81611959565b81146119a5575f80fd5b50565b5f813590506119b681611992565b92915050565b5f80604083850312156119d2576119d1611777565b5b5f6119df858286016119a8565b92505060206119f0858286016118fb565b9150509250929050565b5f805f60608486031215611a1157611a10611777565b5b5f611a1e868287016119a8565b9350506020611a2f868287016119a8565b9250506040611a40868287016118fb565b9150509250925092565b5f60208284031215611a5f57611a5e611777565b5b5f611a6c848285016119a8565b91505092915050565b611a7e816118dc565b82525050565b5f602082019050611a975f830184611a75565b92915050565b611aa6816117ff565b8114611ab0575f80fd5b50565b5f81359050611ac181611a9d565b92915050565b5f8060408385031215611add57611adc611777565b5b5f611aea858286016119a8565b9250506020611afb85828601611ab3565b9150509250929050565b5f80fd5b5f80fd5b7f4e487b71000000000000000000000000000000000000000000000000000000005f52604160045260245ffd5b611b4382611874565b810181811067ffffffffffffffff82111715611b6257611b61611b0d565b5b80604052505050565b5f611b7461176e565b9050611b808282611b3a565b919050565b5f67ffffffffffffffff821115611b9f57611b9e611b0d565b5b611ba882611874565b9050602081019050919050565b828183375f83830152505050565b5f611bd5611bd084611b85565b611b6b565b905082815260208101848484011115611bf157611bf0611b09565b5b611bfc848285611bb5565b509392505050565b5f82601f830112611c1857611c17611b05565b5b8135611c28848260208601611bc3565b91505092915050565b5f805f8060808587031215611c4957611c48611777565b5b5f611c56878288016119a8565b9450506020611c67878288016119a8565b9350506040611c78878288016118fb565b925050606085013567ffffffffffffffff811115611c9957611c9861177b565b5b611ca587828801611c04565b91505092959194509250565b5f8060408385031215611cc757611cc6611777565b5b5f611cd4858286016119a8565b9250506020611ce5858286016119a8565b9150509250929050565b7f4e487b71000000000000000000000000000000000000000000000000000000005f52602260045260245ffd5b5f6002820490506001821680611d3357607f821691505b602082108103611d4657611d45611cef565b5b50919050565b5f606082019050611d5f5f83018661196a565b611d6c6020830185611a75565b611d79604083018461196a565b949350505050565b5f81905092915050565b5f611d9582611832565b611d9f8185611d81565b9350611daf81856020860161184c565b80840191505092915050565b5f611dc68285611d8b565b9150611dd28284611d8b565b91508190509392505050565b5f81519050919050565b5f82825260208201905092915050565b5f611e0282611dde565b611e0c8185611de8565b9350611e1c81856020860161184c565b611e2581611874565b840191505092915050565b5f608082019050611e435f83018761196a565b611e50602083018661196a565b611e5d6040830185611a75565b8181036060830152611e6f8184611df8565b905095945050505050565b5f81519050611e88816117aa565b92915050565b5f60208284031215611ea357611ea2611777565b5b5f611eb084828501611e7a565b91505092915050565b7f4e487b71000000000000000000000000000000000000000000000000000000005f52601260045260245ffd5b5f604082019050611ef95f83018561196a565b611f066020830184611a75565b939250505056fea2646970667358221220f8f134047fb44a7ca6947e4239741b29e09949c8ee564aa34201e311f9c02a4264736f6c63430008180033","linkReferences":{}},"methodIdentifiers":{"approve(address,uint256)":"095ea7b3","balanceOf(address)":"70a08231","getApproved(uint256)":"081812fc","getRWATokenId()":"bea1280b","getRWATokenOwner()":"e6c70231","isApprovedForAll(address,address)":"e985e9c5","isRWATokenOwner(address)":"5b229d3a","name()":"06fdde03","owner()":"8da5cb5b","ownerOf(uint256)":"6352211e","renounceOwnership()":"715018a6","safeTransferFrom(address,address,uint256)":"42842e0e","safeTransferFrom(address,address,uint256,bytes)":"b88d4fde","setApprovalForAll(address,bool)":"a22cb465","supportsInterface(bytes4)":"01ffc9a7","symbol()":"95d89b41","tokenURI(uint256)":"c87b56dd","transferFrom(address,address,uint256)":"23b872dd","transferOwnership(address)":"f2fde38b"},"id":40}