{"abi":[{"type":"constructor","inputs":[],"stateMutability":"nonpayable"},{"type":"function","name":"RWA_ID","inputs":[],"outputs":[{"name":"","type":"uint256","internalType":"uint256"}],"stateMutability":"view"},{"type":"function","name":"calculateDocumentHash","inputs":[{"name":"documentUri","type":"string","internalType":"string"}],"outputs":[{"name":"","type":"bytes32","internalType":"bytes32"}],"stateMutability":"pure"},{"type":"function","name":"getDocumentRecord","inputs":[{"name":"rwaId","type":"uint256","internalType":"uint256"}],"outputs":[{"name":"","type":"tuple","internalType":"struct DocumentRegistry.DocumentRecord","components":[{"name":"documentHash","type":"bytes32","internalType":"bytes32"},{"name":"daTransactionHash","type":"bytes32","internalType":"bytes32"},{"name":"timestamp","type":"uint256","internalType":"uint256"},{"name":"registeredBy","type":"address","internalType":"address"}]}],"stateMutability":"view"},{"type":"function","name":"owner","inputs":[],"outputs":[{"name":"","type":"address","internalType":"address"}],"stateMutability":"view"},{"type":"function","name":"registerDocument","inputs":[{"name":"documentHash","type":"bytes32","internalType":"bytes32"}],"outputs":[{"name":"daTransactionHash","type":"bytes32","internalType":"bytes32"}],"stateMutability":"nonpayable"},{"type":"function","name":"renounceOwnership","inputs":[],"outputs":[],"stateMutability":"nonpayable"},{"type":"function","name":"simulateDABatchPublication","inputs":[{"name":"documentHashes","type":"bytes32[]","internalType":"bytes32[]"}],"outputs":[{"name":"daBatchHash","type":"bytes32","internalType":"bytes32"}],"stateMutability":"nonpayable"},{"type":"function","name":"transferOwnership","inputs":[{"name":"newOwner","type":"address","internalType":"address"}],"outputs":[],"stateMutability":"nonpayable"},{"type":"function","name":"updateDocument","inputs":[{"name":"newDocumentHash","type":"bytes32","internalType":"bytes32"}],"outputs":[],"stateMutability":"nonpayable"},{"type":"function","name":"verifyDocument","inputs":[{"name":"documentHash","type":"bytes32","internalType":"bytes32"},{"name":"rwaId","type":"uint256","internalType":"uint256"}],"outputs":[{"name":"","type":"bool","internalType":"bool"}],"stateMutability":"view"},{"type":"event","name":"DAPublished","inputs":[{"name":"documentHash","type":"bytes32","indexed":true,"internalType":"bytes32"},{"name":"daBatchHash","type":"bytes32","indexed":true,"internalType":"bytes32"},{"name":"timestamp","type":"uint256","indexed":false,"internalType":"uint256"}],"anonymous":false},{"type":"event","name":"DocumentRegistered","inputs":[{"name":"rwaId","type":"uint256","indexed":true,"internalType":"uint256"},{"name":"documentHash","type":"bytes32","indexed":true,"internalType":"bytes32"},{"name":"daTransactionHash","type":"bytes32","indexed":true,"internalType":"bytes32"},{"name":"timestamp","type":"uint256","indexed":false,"internalType":"uint256"},{"name":"registeredBy","type":"address","indexed":false,"internalType":"address"}],"anonymous":false},{"type":"event","name":"OwnershipTransferred","inputs":[{"name":"previousOwner","type":"address","indexed":true,"internalType":"address"},{"name":"newOwner","type":"address","indexed":true,"internalType":"address"}],"anonymous":false},{"type":"error","name":"OwnableInvalidOwner","inputs":[{"name":"owner","type":"address","internalType":"address"}]},{"type":"error","name":"OwnableUnauthorizedAccount","inputs":[{"name":"account","type":"address","internalType":"address"}]}],"bytecode":{"object":"0x608060405234801562000010575f80fd5b50335f73ffffffffffffffffffffffffffffffffffffffff168173ffffffffffffffffffffffffffffffffffffffff160362000085575f6040517f1e4fbdf70000000000000000000000000000000000000000000000000000000081526004016200007c9190620001a1565b60405180910390fd5b62000096816200009d60201b60201c565b50620001bc565b5f805f9054906101000a900473ffffffffffffffffffffffffffffffffffffffff169050815f806101000a81548173ffffffffffffffffffffffffffffffffffffffff021916908373ffffffffffffffffffffffffffffffffffffffff1602179055508173ffffffffffffffffffffffffffffffffffffffff168173ffffffffffffffffffffffffffffffffffffffff167f8be0079c531659141344cd1fd0a4f28419497f9722a3daafe3b4186f6b6457e060405160405180910390a35050565b5f73ffffffffffffffffffffffffffffffffffffffff82169050919050565b5f62000189826200015e565b9050919050565b6200019b816200017d565b82525050565b5f602082019050620001b65f83018462000190565b92915050565b61152f80620001ca5f395ff3fe608060405234801561000f575f80fd5b506004361061009c575f3560e01c8063a9baa23c11610064578063a9baa23c14610146578063c5a9035014610176578063f0e5dba314610192578063f2fde38b146101c2578063fda80130146101de5761009c565b8063153f55ac146100a05780631bbf0e75146100d0578063715018a6146100ee5780638da5cb5b146100f85780639b13197414610116575b5f80fd5b6100ba60048036038101906100b59190610c40565b61020e565b6040516100c79190610c9f565b60405180910390f35b6100d8610264565b6040516100e59190610cd0565b60405180910390f35b6100f6610269565b005b61010061027c565b60405161010d9190610d28565b60405180910390f35b610130600480360381019061012b9190610d6b565b6102a3565b60405161013d9190610c9f565b60405180910390f35b610160600480360381019061015b9190610dc0565b61046d565b60405161016d9190610e18565b60405180910390f35b610190600480360381019061018b9190610d6b565b6104cf565b005b6101ac60048036038101906101a79190610e31565b610698565b6040516101b99190610edc565b60405180910390f35b6101dc60048036038101906101d79190610f1f565b6107ce565b005b6101f860048036038101906101f39190610fa7565b610852565b6040516102059190610c9f565b60405180910390f35b5f60028260405161021f919061105e565b602060405180830381855afa15801561023a573d5f803e3d5ffd5b5050506040513d601f19601f8201168201806040525081019061025d9190611088565b9050919050565b600181565b6102716108fb565b61027a5f610982565b565b5f805f9054906101000a900473ffffffffffffffffffffffffffffffffffffffff16905090565b5f6102ac6108fb565b5f801b82036102f0576040517f08c379a00000000000000000000000000000000000000000000000000000000081526004016102e790611133565b60405180910390fd5b5f60015f600181526020019081526020015f206002015414610347576040517f08c379a000000000000000000000000000000000000000000000000000000000815260040161033e906111c1565b60405180910390fd5b81424460405160200161035c9392919061121f565b60405160208183030381529060405280519060200120905060405180608001604052808381526020018281526020014281526020013373ffffffffffffffffffffffffffffffffffffffff1681525060015f600181526020019081526020015f205f820151815f015560208201518160010155604082015181600201556060820151816003015f6101000a81548173ffffffffffffffffffffffffffffffffffffffff021916908373ffffffffffffffffffffffffffffffffffffffff160217905550905050808260017f6a71301819c773ca4fbdbacd565d61a7348a0ade45030f79e8d604312d368b9c423360405161045792919061125b565b60405180910390a461046882610a43565b919050565b5f600182146104b1576040517f08c379a00000000000000000000000000000000000000000000000000000000081526004016104a8906112cc565b60405180910390fd5b8260015f8481526020019081526020015f205f015414905092915050565b6104d76108fb565b5f801b810361051b576040517f08c379a000000000000000000000000000000000000000000000000000000000815260040161051290611133565b60405180910390fd5b5f60015f600181526020019081526020015f206002015403610572576040517f08c379a00000000000000000000000000000000000000000000000000000000081526004016105699061135a565b60405180910390fd5b5f8142446040516020016105889392919061121f565b60405160208183030381529060405280519060200120905060405180608001604052808381526020018281526020014281526020013373ffffffffffffffffffffffffffffffffffffffff1681525060015f600181526020019081526020015f205f820151815f015560208201518160010155604082015181600201556060820151816003015f6101000a81548173ffffffffffffffffffffffffffffffffffffffff021916908373ffffffffffffffffffffffffffffffffffffffff160217905550905050808260017f6a71301819c773ca4fbdbacd565d61a7348a0ade45030f79e8d604312d368b9c423360405161068392919061125b565b60405180910390a461069482610a43565b5050565b6106a0610ab3565b600182146106e3576040517f08c379a00000000000000000000000000000000000000000000000000000000081526004016106da906112cc565b60405180910390fd5b5f60015f8481526020019081526020015f206002015403610739576040517f08c379a0000000000000000000000000000000000000000000000000000000008152600401610730906113e8565b60405180910390fd5b60015f8381526020019081526020015f206040518060800160405290815f82015481526020016001820154815260200160028201548152602001600382015f9054906101000a900473ffffffffffffffffffffffffffffffffffffffff1673ffffffffffffffffffffffffffffffffffffffff1673ffffffffffffffffffffffffffffffffffffffff16815250509050919050565b6107d66108fb565b5f73ffffffffffffffffffffffffffffffffffffffff168173ffffffffffffffffffffffffffffffffffffffff1603610846575f6040517f1e4fbdf700000000000000000000000000000000000000000000000000000000815260040161083d9190610d28565b60405180910390fd5b61084f81610982565b50565b5f61085b6108fb565b82824260405160200161087093929190611478565b6040516020818303038152906040528051906020012090505f5b838390508110156108f457818484838181106108a9576108a86114a1565b5b905060200201357f2b13235d09ada723c8e70a83b50fa2000e6ed8e807f0ddccf1750a4c780316e6426040516108df9190610cd0565b60405180910390a3808060010191505061088a565b5092915050565b610903610aac565b73ffffffffffffffffffffffffffffffffffffffff1661092161027c565b73ffffffffffffffffffffffffffffffffffffffff161461098057610944610aac565b6040517f118cdaa70000000000000000000000000000000000000000000000000000000081526004016109779190610d28565b60405180910390fd5b565b5f805f9054906101000a900473ffffffffffffffffffffffffffffffffffffffff169050815f806101000a81548173ffffffffffffffffffffffffffffffffffffffff021916908373ffffffffffffffffffffffffffffffffffffffff1602179055508173ffffffffffffffffffffffffffffffffffffffff168173ffffffffffffffffffffffffffffffffffffffff167f8be0079c531659141344cd1fd0a4f28419497f9722a3daafe3b4186f6b6457e060405160405180910390a35050565b5f8142604051602001610a579291906114ce565b60405160208183030381529060405280519060200120905080827f2b13235d09ada723c8e70a83b50fa2000e6ed8e807f0ddccf1750a4c780316e642604051610aa09190610cd0565b60405180910390a35050565b5f33905090565b60405180608001604052805f80191681526020015f80191681526020015f81526020015f73ffffffffffffffffffffffffffffffffffffffff1681525090565b5f604051905090565b5f80fd5b5f80fd5b5f80fd5b5f80fd5b5f601f19601f8301169050919050565b7f4e487b71000000000000000000000000000000000000000000000000000000005f52604160045260245ffd5b610b5282610b0c565b810181811067ffffffffffffffff82111715610b7157610b70610b1c565b5b80604052505050565b5f610b83610af3565b9050610b8f8282610b49565b919050565b5f67ffffffffffffffff821115610bae57610bad610b1c565b5b610bb782610b0c565b9050602081019050919050565b828183375f83830152505050565b5f610be4610bdf84610b94565b610b7a565b905082815260208101848484011115610c0057610bff610b08565b5b610c0b848285610bc4565b509392505050565b5f82601f830112610c2757610c26610b04565b5b8135610c37848260208601610bd2565b91505092915050565b5f60208284031215610c5557610c54610afc565b5b5f82013567ffffffffffffffff811115610c7257610c71610b00565b5b610c7e84828501610c13565b91505092915050565b5f819050919050565b610c9981610c87565b82525050565b5f602082019050610cb25f830184610c90565b92915050565b5f819050919050565b610cca81610cb8565b82525050565b5f602082019050610ce35f830184610cc1565b92915050565b5f73ffffffffffffffffffffffffffffffffffffffff82169050919050565b5f610d1282610ce9565b9050919050565b610d2281610d08565b82525050565b5f602082019050610d3b5f830184610d19565b92915050565b610d4a81610c87565b8114610d54575f80fd5b50565b5f81359050610d6581610d41565b92915050565b5f60208284031215610d8057610d7f610afc565b5b5f610d8d84828501610d57565b91505092915050565b610d9f81610cb8565b8114610da9575f80fd5b50565b5f81359050610dba81610d96565b92915050565b5f8060408385031215610dd657610dd5610afc565b5b5f610de385828601610d57565b9250506020610df485828601610dac565b9150509250929050565b5f8115159050919050565b610e1281610dfe565b82525050565b5f602082019050610e2b5f830184610e09565b92915050565b5f60208284031215610e4657610e45610afc565b5b5f610e5384828501610dac565b91505092915050565b610e6581610c87565b82525050565b610e7481610cb8565b82525050565b610e8381610d08565b82525050565b608082015f820151610e9d5f850182610e5c565b506020820151610eb06020850182610e5c565b506040820151610ec36040850182610e6b565b506060820151610ed66060850182610e7a565b50505050565b5f608082019050610eef5f830184610e89565b92915050565b610efe81610d08565b8114610f08575f80fd5b50565b5f81359050610f1981610ef5565b92915050565b5f60208284031215610f3457610f33610afc565b5b5f610f4184828501610f0b565b91505092915050565b5f80fd5b5f80fd5b5f8083601f840112610f6757610f66610b04565b5b8235905067ffffffffffffffff811115610f8457610f83610f4a565b5b602083019150836020820283011115610fa057610f9f610f4e565b5b9250929050565b5f8060208385031215610fbd57610fbc610afc565b5b5f83013567ffffffffffffffff811115610fda57610fd9610b00565b5b610fe685828601610f52565b92509250509250929050565b5f81519050919050565b5f81905092915050565b5f5b83811015611023578082015181840152602081019050611008565b5f8484015250505050565b5f61103882610ff2565b6110428185610ffc565b9350611052818560208601611006565b80840191505092915050565b5f611069828461102e565b915081905092915050565b5f8151905061108281610d41565b92915050565b5f6020828403121561109d5761109c610afc565b5b5f6110aa84828501611074565b91505092915050565b5f82825260208201905092915050565b7f446f63756d656e7452656769737472793a20686173682063616e6e6f742062655f8201527f207a65726f000000000000000000000000000000000000000000000000000000602082015250565b5f61111d6025836110b3565b9150611128826110c3565b604082019050919050565b5f6020820190508181035f83015261114a81611111565b9050919050565b7f446f63756d656e7452656769737472793a20646f63756d656e7420616c7265615f8201527f6479207265676973746572656400000000000000000000000000000000000000602082015250565b5f6111ab602d836110b3565b91506111b682611151565b604082019050919050565b5f6020820190508181035f8301526111d88161119f565b9050919050565b5f819050919050565b6111f96111f482610c87565b6111df565b82525050565b5f819050919050565b61121961121482610cb8565b6111ff565b82525050565b5f61122a82866111e8565b60208201915061123a8285611208565b60208201915061124a8284611208565b602082019150819050949350505050565b5f60408201905061126e5f830185610cc1565b61127b6020830184610d19565b9392505050565b7f446f63756d656e7452656769737472793a20696e76616c6964205257412049445f82015250565b5f6112b66020836110b3565b91506112c182611282565b602082019050919050565b5f6020820190508181035f8301526112e3816112aa565b9050919050565b7f446f63756d656e7452656769737472793a206e6f20646f63756d656e7420746f5f8201527f2075706461746500000000000000000000000000000000000000000000000000602082015250565b5f6113446027836110b3565b915061134f826112ea565b604082019050919050565b5f6020820190508181035f83015261137181611338565b9050919050565b7f446f63756d656e7452656769737472793a20646f63756d656e74206e6f7420665f8201527f6f756e6400000000000000000000000000000000000000000000000000000000602082015250565b5f6113d26024836110b3565b91506113dd82611378565b604082019050919050565b5f6020820190508181035f8301526113ff816113c6565b9050919050565b5f81905092915050565b5f80fd5b82818337505050565b5f6114288385611406565b93507f07ffffffffffffffffffffffffffffffffffffffffffffffffffffffffffffff83111561145b5761145a611410565b5b60208302925061146c838584611414565b82840190509392505050565b5f61148482858761141d565b91506114908284611208565b602082019150819050949350505050565b7f4e487b71000000000000000000000000000000000000000000000000000000005f52603260045260245ffd5b5f6114d982856111e8565b6020820191506114e98284611208565b602082019150819050939250505056fea26469706673582212201b12b7e59e8af0123c033d30ac356fcf0c391674e2128927515cfe6e1f8c540c64736f6c63430008180033","linkReferences":{}},"methodIdentifiers":{"RWA_ID()":"1bbf0e75","calculateDocumentHash(string)":"153f55ac","getDocumentRecord(uint256)":"f0e5dba3","owner()":"8da5cb5b","registerDocument(bytes32)":"9b131974","renounceOwnership()":"715018a6","simulateDABatchPublication(bytes32[])":"fda80130","transferOwnership(address)":"f2fde38b","updateDocument(bytes32)":"c5a90350","verifyDocument(bytes32,uint256)":"a9baa23c"},"id":42}