{"abi":[{"type":"constructor","inputs":[],"stateMutability":"nonpayable"},{"type":"function","name":"blockNumber","inputs":[],"outputs":[{"name":"","type":"uint256","internalType":"uint256"}],"stateMutability":"view"},{"type":"function","name":"blocks","inputs":[{"name":"","type":"uint256","internalType":"uint256"}],"outputs":[{"name":"stateRoot","type":"bytes32","internalType":"bytes32"},{"name":"daHash","type":"bytes32","internalType":"bytes32"},{"name":"timestamp","type":"uint256","internalType":"uint256"},{"name":"aggregator","type":"address","internalType":"address"}],"stateMutability":"view"},{"type":"function","name":"commitBlock","inputs":[{"name":"stateRoot","type":"bytes32","internalType":"bytes32"},{"name":"daHash","type":"bytes32","internalType":"bytes32"}],"outputs":[],"stateMutability":"nonpayable"},{"type":"function","name":"documentRegistry","inputs":[],"outputs":[{"name":"","type":"address","internalType":"contract DocumentRegistry"}],"stateMutability":"view"},{"type":"function","name":"getDocumentRecord","inputs":[],"outputs":[{"name":"","type":"tuple","internalType":"struct DocumentRegistry.DocumentRecord","components":[{"name":"documentHash","type":"bytes32","internalType":"bytes32"},{"name":"daTransactionHash","type":"bytes32","internalType":"bytes32"},{"name":"timestamp","type":"uint256","internalType":"uint256"},{"name":"registeredBy","type":"address","internalType":"address"}]}],"stateMutability":"view"},{"type":"function","name":"lastStateRoot","inputs":[],"outputs":[{"name":"","type":"bytes32","internalType":"bytes32"}],"stateMutability":"view"},{"type":"function","name":"owner","inputs":[],"outputs":[{"name":"","type":"address","internalType":"address"}],"stateMutability":"view"},{"type":"function","name":"registerDocument","inputs":[{"name":"documentHash","type":"bytes32","internalType":"bytes32"}],"outputs":[{"name":"","type":"bytes32","internalType":"bytes32"}],"stateMutability":"nonpayable"},{"type":"function","name":"renounceOwnership","inputs":[],"outputs":[],"stateMutability":"nonpayable"},{"type":"function","name":"requestTokenization","inputs":[{"name":"amount","type":"uint256","internalType":"uint256"},{"name":"documentHash","type":"bytes32","internalType":"bytes32"}],"outputs":[{"name":"requestId","type":"uint256","internalType":"uint256"}],"stateMutability":"nonpayable"},{"type":"function","name":"transferOwnership","inputs":[{"name":"newOwner","type":"address","internalType":"address"}],"outputs":[],"stateMutability":"nonpayable"},{"type":"function","name":"verifyDocumentInclusion","inputs":[{"name":"documentHash","type":"bytes32","internalType":"bytes32"},{"name":"targetBlock","type":"uint256","internalType":"uint256"}],"outputs":[{"name":"","type":"bool","internalType":"bool"}],"stateMutability":"view"},{"type":"event","name":"OwnershipTransferred","inputs":[{"name":"previousOwner","type":"address","indexed":true,"internalType":"address"},{"name":"newOwner","type":"address","indexed":true,"internalType":"address"}],"anonymous":false},{"type":"event","name":"RollupBlockCommitted","inputs":[{"name":"blockNumber","type":"uint256","indexed":true,"internalType":"uint256"},{"name":"stateRoot","type":"bytes32","indexed":true,"internalType":"bytes32"},{"name":"daHash","type":"bytes32","indexed":true,"internalType":"bytes32"},{"name":"aggregator","type":"address","indexed":false,"internalType":"address"}],"anonymous":false},{"type":"event","name":"TokenizationRequested","inputs":[{"name":"requester","type":"address","indexed":true,"internalType":"address"},{"name":"amount","type":"uint256","indexed":false,"internalType":"uint256"},{"name":"documentHash","type":"bytes32","indexed":false,"internalType":"bytes32"},{"name":"timestamp","type":"uint256","indexed":false,"internalType":"uint256"}],"anonymous":false},{"type":"error","name":"OwnableInvalidOwner","inputs":[{"name":"owner","type":"address","internalType":"address"}]},{"type":"error","name":"OwnableUnauthorizedAccount","inputs":[{"name":"account","type":"address","internalType":"address"}]}],"bytecode":{"object":"0x608060405234801562000010575f80fd5b50335f73ffffffffffffffffffffffffffffffffffffffff168173ffffffffffffffffffffffffffffffffffffffff160362000085575f6040517f1e4fbdf70000000000000000000000000000000000000000000000000000000081526004016200007c91906200021f565b60405180910390fd5b62000096816200010d60201b60201c565b50604051620000a590620001ce565b604051809103905ff080158015620000bf573d5f803e3d5ffd5b5060015f6101000a81548173ffffffffffffffffffffffffffffffffffffffff021916908373ffffffffffffffffffffffffffffffffffffffff16021790555060016003819055506200023a565b5f805f9054906101000a900473ffffffffffffffffffffffffffffffffffffffff169050815f806101000a81548173ffffffffffffffffffffffffffffffffffffffff021916908373ffffffffffffffffffffffffffffffffffffffff1602179055508173ffffffffffffffffffffffffffffffffffffffff168173ffffffffffffffffffffffffffffffffffffffff167f8be0079c531659141344cd1fd0a4f28419497f9722a3daafe3b4186f6b6457e060405160405180910390a35050565b6116f9806200151c83390190565b5f73ffffffffffffffffffffffffffffffffffffffff82169050919050565b5f6200020782620001dc565b9050919050565b6200021981620001fb565b82525050565b5f602082019050620002345f8301846200020e565b92915050565b6112d480620002485f395ff3fe608060405234801561000f575f80fd5b50600436106100b2575f3560e01c80639b4ffa001161006f5780639b4ffa001461017a578063a4a1160f146101aa578063abfafdbe146101c8578063b70de0d9146101e4578063f25b3f9914610202578063f2fde38b14610235576100b2565b806318332cc2146100b657806357e871e7146100e6578063706231b214610104578063715018a6146101225780638da5cb5b1461012c5780639b1319741461014a575b5f80fd5b6100d060048036038101906100cb9190610a53565b610251565b6040516100dd9190610aab565b60405180910390f35b6100ee610274565b6040516100fb9190610ad3565b60405180910390f35b61010c61027a565b6040516101199190610b9c565b60405180910390f35b61012a6103ad565b005b6101346103c0565b6040516101419190610bc4565b60405180910390f35b610164600480360381019061015f9190610bdd565b6103e7565b6040516101719190610c17565b60405180910390f35b610194600480360381019061018f9190610c30565b610491565b6040516101a19190610ad3565b60405180910390f35b6101b26105a8565b6040516101bf9190610cc9565b60405180910390f35b6101e260048036038101906101dd9190610ce2565b6105cd565b005b6101ec6106e2565b6040516101f99190610c17565b60405180910390f35b61021c60048036038101906102179190610d20565b6106e8565b60405161022c9493929190610d4b565b60405180910390f35b61024f600480360381019061024a9190610db8565b610733565b005b5f805f1b60045f8481526020019081526020015f20600101541415905092915050565b60035481565b6102826109a0565b60015f9054906101000a900473ffffffffffffffffffffffffffffffffffffffff1673ffffffffffffffffffffffffffffffffffffffff1663f0e5dba360015f9054906101000a900473ffffffffffffffffffffffffffffffffffffffff1673ffffffffffffffffffffffffffffffffffffffff16631bbf0e756040518163ffffffff1660e01b8152600401602060405180830381865afa158015610329573d5f803e3d5ffd5b505050506040513d601f19601f8201168201806040525081019061034d9190610df7565b6040518263ffffffff1660e01b81526004016103699190610ad3565b608060405180830381865afa158015610384573d5f803e3d5ffd5b505050506040513d601f19601f820116820180604052508101906103a89190610f4b565b905090565b6103b56107b7565b6103be5f61083e565b565b5f805f9054906101000a900473ffffffffffffffffffffffffffffffffffffffff16905090565b5f6103f06107b7565b60015f9054906101000a900473ffffffffffffffffffffffffffffffffffffffff1673ffffffffffffffffffffffffffffffffffffffff16639b131974836040518263ffffffff1660e01b815260040161044a9190610c17565b6020604051808303815f875af1158015610466573d5f803e3d5ffd5b505050506040513d601f19601f8201168201806040525081019061048a9190610f76565b9050919050565b5f8083116104d4576040517f08c379a00000000000000000000000000000000000000000000000000000000081526004016104cb90611021565b60405180910390fd5b5f801b8203610518576040517f08c379a000000000000000000000000000000000000000000000000000000000815260040161050f906110af565b60405180910390fd5b33834260405160200161052d93929190611132565b604051602081830303815290604052805190602001205f1c90503373ffffffffffffffffffffffffffffffffffffffff167fc958d8d90eae75e4980b42bccaacb328d1bcb38157436e59b61f724037699a4e8484426040516105919392919061116e565b60405180910390a26105a2826108ff565b92915050565b60015f9054906101000a900473ffffffffffffffffffffffffffffffffffffffff1681565b6105d56107b7565b60405180608001604052808381526020018281526020014281526020013373ffffffffffffffffffffffffffffffffffffffff1681525060045f60035481526020019081526020015f205f820151815f015560208201518160010155604082015181600201556060820151816003015f6101000a81548173ffffffffffffffffffffffffffffffffffffffff021916908373ffffffffffffffffffffffffffffffffffffffff1602179055509050508160028190555080826003547f1c8afba4e7c410e1254891742aea383e575971f7c3e34a00578eda1376e0e094336040516106bf9190610bc4565b60405180910390a460035f8154809291906106d9906111d0565b91905055505050565b60025481565b6004602052805f5260405f205f91509050805f015490806001015490806002015490806003015f9054906101000a900473ffffffffffffffffffffffffffffffffffffffff16905084565b61073b6107b7565b5f73ffffffffffffffffffffffffffffffffffffffff168173ffffffffffffffffffffffffffffffffffffffff16036107ab575f6040517f1e4fbdf70000000000000000000000000000000000000000000000000000000081526004016107a29190610bc4565b60405180910390fd5b6107b48161083e565b50565b6107bf610999565b73ffffffffffffffffffffffffffffffffffffffff166107dd6103c0565b73ffffffffffffffffffffffffffffffffffffffff161461083c57610800610999565b6040517f118cdaa70000000000000000000000000000000000000000000000000000000081526004016108339190610bc4565b60405180910390fd5b565b5f805f9054906101000a900473ffffffffffffffffffffffffffffffffffffffff169050815f806101000a81548173ffffffffffffffffffffffffffffffffffffffff021916908373ffffffffffffffffffffffffffffffffffffffff1602179055508173ffffffffffffffffffffffffffffffffffffffff168173ffffffffffffffffffffffffffffffffffffffff167f8be0079c531659141344cd1fd0a4f28419497f9722a3daafe3b4186f6b6457e060405160405180910390a35050565b5f816002544260405160200161091793929190611237565b6040516020818303038152906040528051906020012090508060025483604051602001610945929190611273565b604051602081830303815290604052805190602001206003547f1c8afba4e7c410e1254891742aea383e575971f7c3e34a00578eda1376e0e0943060405161098d9190610bc4565b60405180910390a45050565b5f33905090565b60405180608001604052805f80191681526020015f80191681526020015f81526020015f73ffffffffffffffffffffffffffffffffffffffff1681525090565b5f604051905090565b5f80fd5b5f819050919050565b6109ff816109ed565b8114610a09575f80fd5b50565b5f81359050610a1a816109f6565b92915050565b5f819050919050565b610a3281610a20565b8114610a3c575f80fd5b50565b5f81359050610a4d81610a29565b92915050565b5f8060408385031215610a6957610a686109e9565b5b5f610a7685828601610a0c565b9250506020610a8785828601610a3f565b9150509250929050565b5f8115159050919050565b610aa581610a91565b82525050565b5f602082019050610abe5f830184610a9c565b92915050565b610acd81610a20565b82525050565b5f602082019050610ae65f830184610ac4565b92915050565b610af5816109ed565b82525050565b610b0481610a20565b82525050565b5f73ffffffffffffffffffffffffffffffffffffffff82169050919050565b5f610b3382610b0a565b9050919050565b610b4381610b29565b82525050565b608082015f820151610b5d5f850182610aec565b506020820151610b706020850182610aec565b506040820151610b836040850182610afb565b506060820151610b966060850182610b3a565b50505050565b5f608082019050610baf5f830184610b49565b92915050565b610bbe81610b29565b82525050565b5f602082019050610bd75f830184610bb5565b92915050565b5f60208284031215610bf257610bf16109e9565b5b5f610bff84828501610a0c565b91505092915050565b610c11816109ed565b82525050565b5f602082019050610c2a5f830184610c08565b92915050565b5f8060408385031215610c4657610c456109e9565b5b5f610c5385828601610a3f565b9250506020610c6485828601610a0c565b9150509250929050565b5f819050919050565b5f610c91610c8c610c8784610b0a565b610c6e565b610b0a565b9050919050565b5f610ca282610c77565b9050919050565b5f610cb382610c98565b9050919050565b610cc381610ca9565b82525050565b5f602082019050610cdc5f830184610cba565b92915050565b5f8060408385031215610cf857610cf76109e9565b5b5f610d0585828601610a0c565b9250506020610d1685828601610a0c565b9150509250929050565b5f60208284031215610d3557610d346109e9565b5b5f610d4284828501610a3f565b91505092915050565b5f608082019050610d5e5f830187610c08565b610d6b6020830186610c08565b610d786040830185610ac4565b610d856060830184610bb5565b95945050505050565b610d9781610b29565b8114610da1575f80fd5b50565b5f81359050610db281610d8e565b92915050565b5f60208284031215610dcd57610dcc6109e9565b5b5f610dda84828501610da4565b91505092915050565b5f81519050610df181610a29565b92915050565b5f60208284031215610e0c57610e0b6109e9565b5b5f610e1984828501610de3565b91505092915050565b5f80fd5b5f601f19601f8301169050919050565b7f4e487b71000000000000000000000000000000000000000000000000000000005f52604160045260245ffd5b610e6c82610e26565b810181811067ffffffffffffffff82111715610e8b57610e8a610e36565b5b80604052505050565b5f610e9d6109e0565b9050610ea98282610e63565b919050565b5f81519050610ebc816109f6565b92915050565b5f81519050610ed081610d8e565b92915050565b5f60808284031215610eeb57610eea610e22565b5b610ef56080610e94565b90505f610f0484828501610eae565b5f830152506020610f1784828501610eae565b6020830152506040610f2b84828501610de3565b6040830152506060610f3f84828501610ec2565b60608301525092915050565b5f60808284031215610f6057610f5f6109e9565b5b5f610f6d84828501610ed6565b91505092915050565b5f60208284031215610f8b57610f8a6109e9565b5b5f610f9884828501610eae565b91505092915050565b5f82825260208201905092915050565b7f525741526f6c6c75703a20616d6f756e74206d757374206265206772656174655f8201527f72207468616e207a65726f000000000000000000000000000000000000000000602082015250565b5f61100b602b83610fa1565b915061101682610fb1565b604082019050919050565b5f6020820190508181035f83015261103881610fff565b9050919050565b7f525741526f6c6c75703a20646f63756d656e74206861736820726571756972655f8201527f6400000000000000000000000000000000000000000000000000000000000000602082015250565b5f611099602183610fa1565b91506110a48261103f565b604082019050919050565b5f6020820190508181035f8301526110c68161108d565b9050919050565b5f8160601b9050919050565b5f6110e3826110cd565b9050919050565b5f6110f4826110d9565b9050919050565b61110c61110782610b29565b6110ea565b82525050565b5f819050919050565b61112c61112782610a20565b611112565b82525050565b5f61113d82866110fb565b60148201915061114d828561111b565b60208201915061115d828461111b565b602082019150819050949350505050565b5f6060820190506111815f830186610ac4565b61118e6020830185610c08565b61119b6040830184610ac4565b949350505050565b7f4e487b71000000000000000000000000000000000000000000000000000000005f52601160045260245ffd5b5f6111da82610a20565b91507fffffffffffffffffffffffffffffffffffffffffffffffffffffffffffffffff820361120c5761120b6111a3565b5b600182019050919050565b5f819050919050565b61123161122c826109ed565b611217565b82525050565b5f6112428286611220565b6020820191506112528285611220565b602082019150611262828461111b565b602082019150819050949350505050565b5f61127e8285611220565b60208201915061128e8284611220565b602082019150819050939250505056fea2646970667358221220a799605d1d3edc1219d78331016cd4557a0dd916c1d93a11f4e75f0b5551758664736f6c63430008180033608060405234801562000010575f80fd5b50335f73ffffffffffffffffffffffffffffffffffffffff168173ffffffffffffffffffffffffffffffffffffffff160362000085575f6040517f1e4fbdf70000000000000000000000000000000000000000000000000000000081526004016200007c9190620001a1565b60405180910390fd5b62000096816200009d60201b60201c565b50620001bc565b5f805f9054906101000a900473ffffffffffffffffffffffffffffffffffffffff169050815f806101000a81548173ffffffffffffffffffffffffffffffffffffffff021916908373ffffffffffffffffffffffffffffffffffffffff1602179055508173ffffffffffffffffffffffffffffffffffffffff168173ffffffffffffffffffffffffffffffffffffffff167f8be0079c531659141344cd1fd0a4f28419497f9722a3daafe3b4186f6b6457e060405160405180910390a35050565b5f73ffffffffffffffffffffffffffffffffffffffff82169050919050565b5f62000189826200015e565b9050919050565b6200019b816200017d565b82525050565b5f602082019050620001b65f83018462000190565b92915050565b61152f80620001ca5f395ff3fe608060405234801561000f575f80fd5b506004361061009c575f3560e01c8063a9baa23c11610064578063a9baa23c14610146578063c5a9035014610176578063f0e5dba314610192578063f2fde38b146101c2578063fda80130146101de5761009c565b8063153f55ac146100a05780631bbf0e75146100d0578063715018a6146100ee5780638da5cb5b146100f85780639b13197414610116575b5f80fd5b6100ba60048036038101906100b59190610c40565b61020e565b6040516100c79190610c9f565b60405180910390f35b6100d8610264565b6040516100e59190610cd0565b60405180910390f35b6100f6610269565b005b61010061027c565b60405161010d9190610d28565b60405180910390f35b610130600480360381019061012b9190610d6b565b6102a3565b60405161013d9190610c9f565b60405180910390f35b610160600480360381019061015b9190610dc0565b61046d565b60405161016d9190610e18565b60405180910390f35b610190600480360381019061018b9190610d6b565b6104cf565b005b6101ac60048036038101906101a79190610e31565b610698565b6040516101b99190610edc565b60405180910390f35b6101dc60048036038101906101d79190610f1f565b6107ce565b005b6101f860048036038101906101f39190610fa7565b610852565b6040516102059190610c9f565b60405180910390f35b5f60028260405161021f919061105e565b602060405180830381855afa15801561023a573d5f803e3d5ffd5b5050506040513d601f19601f8201168201806040525081019061025d9190611088565b9050919050565b600181565b6102716108fb565b61027a5f610982565b565b5f805f9054906101000a900473ffffffffffffffffffffffffffffffffffffffff16905090565b5f6102ac6108fb565b5f801b82036102f0576040517f08c379a00000000000000000000000000000000000000000000000000000000081526004016102e790611133565b60405180910390fd5b5f60015f600181526020019081526020015f206002015414610347576040517f08c379a000000000000000000000000000000000000000000000000000000000815260040161033e906111c1565b60405180910390fd5b81424460405160200161035c9392919061121f565b60405160208183030381529060405280519060200120905060405180608001604052808381526020018281526020014281526020013373ffffffffffffffffffffffffffffffffffffffff1681525060015f600181526020019081526020015f205f820151815f015560208201518160010155604082015181600201556060820151816003015f6101000a81548173ffffffffffffffffffffffffffffffffffffffff021916908373ffffffffffffffffffffffffffffffffffffffff160217905550905050808260017f6a71301819c773ca4fbdbacd565d61a7348a0ade45030f79e8d604312d368b9c423360405161045792919061125b565b60405180910390a461046882610a43565b919050565b5f600182146104b1576040517f08c379a00000000000000000000000000000000000000000000000000000000081526004016104a8906112cc565b60405180910390fd5b8260015f8481526020019081526020015f205f015414905092915050565b6104d76108fb565b5f801b810361051b576040517f08c379a000000000000000000000000000000000000000000000000000000000815260040161051290611133565b60405180910390fd5b5f60015f600181526020019081526020015f206002015403610572576040517f08c379a00000000000000000000000000000000000000000000000000000000081526004016105699061135a565b60405180910390fd5b5f8142446040516020016105889392919061121f565b60405160208183030381529060405280519060200120905060405180608001604052808381526020018281526020014281526020013373ffffffffffffffffffffffffffffffffffffffff1681525060015f600181526020019081526020015f205f820151815f015560208201518160010155604082015181600201556060820151816003015f6101000a81548173ffffffffffffffffffffffffffffffffffffffff021916908373ffffffffffffffffffffffffffffffffffffffff160217905550905050808260017f6a71301819c773ca4fbdbacd565d61a7348a0ade45030f79e8d604312d368b9c423360405161068392919061125b565b60405180910390a461069482610a43565b5050565b6106a0610ab3565b600182146106e3576040517f08c379a00000000000000000000000000000000000000000000000000000000081526004016106da906112cc565b60405180910390fd5b5f60015f8481526020019081526020015f206002015403610739576040517f08c379a0000000000000000000000000000000000000000000000000000000008152600401610730906113e8565b60405180910390fd5b60015f8381526020019081526020015f206040518060800160405290815f82015481526020016001820154815260200160028201548152602001600382015f9054906101000a900473ffffffffffffffffffffffffffffffffffffffff1673ffffffffffffffffffffffffffffffffffffffff1673ffffffffffffffffffffffffffffffffffffffff16815250509050919050565b6107d66108fb565b5f73ffffffffffffffffffffffffffffffffffffffff168173ffffffffffffffffffffffffffffffffffffffff1603610846575f6040517f1e4fbdf700000000000000000000000000000000000000000000000000000000815260040161083d9190610d28565b60405180910390fd5b61084f81610982565b50565b5f61085b6108fb565b82824260405160200161087093929190611478565b6040516020818303038152906040528051906020012090505f5b838390508110156108f457818484838181106108a9576108a86114a1565b5b905060200201357f2b13235d09ada723c8e70a83b50fa2000e6ed8e807f0ddccf1750a4c780316e6426040516108df9190610cd0565b60405180910390a3808060010191505061088a565b5092915050565b610903610aac565b73ffffffffffffffffffffffffffffffffffffffff1661092161027c565b73ffffffffffffffffffffffffffffffffffffffff161461098057610944610aac565b6040517f118cdaa70000000000000000000000000000000000000000000000000000000081526004016109779190610d28565b60405180910390fd5b565b5f805f9054906101000a900473ffffffffffffffffffffffffffffffffffffffff169050815f806101000a81548173ffffffffffffffffffffffffffffffffffffffff021916908373ffffffffffffffffffffffffffffffffffffffff1602179055508173ffffffffffffffffffffffffffffffffffffffff168173ffffffffffffffffffffffffffffffffffffffff167f8be0079c531659141344cd1fd0a4f28419497f9722a3daafe3b4186f6b6457e060405160405180910390a35050565b5f8142604051602001610a579291906114ce565b60405160208183030381529060405280519060200120905080827f2b13235d09ada723c8e70a83b50fa2000e6ed8e807f0ddccf1750a4c780316e642604051610aa09190610cd0565b60405180910390a35050565b5f33905090565b60405180608001604052805f80191681526020015f80191681526020015f81526020015f73ffffffffffffffffffffffffffffffffffffffff1681525090565b5f604051905090565b5f80fd5b5f80fd5b5f80fd5b5f80fd5b5f601f19601f8301169050919050565b7f4e487b71000000000000000000000000000000000000000000000000000000005f52604160045260245ffd5b610b5282610b0c565b810181811067ffffffffffffffff82111715610b7157610b70610b1c565b5b80604052505050565b5f610b83610af3565b9050610b8f8282610b49565b919050565b5f67ffffffffffffffff821115610bae57610bad610b1c565b5b610bb782610b0c565b9050602081019050919050565b828183375f83830152505050565b5f610be4610bdf84610b94565b610b7a565b905082815260208101848484011115610c0057610bff610b08565b5b610c0b848285610bc4565b509392505050565b5f82601f830112610c2757610c26610b04565b5b8135610c37848260208601610bd2565b91505092915050565b5f60208284031215610c5557610c54610afc565b5b5f82013567ffffffffffffffff811115610c7257610c71610b00565b5b610c7e84828501610c13565b91505092915050565b5f819050919050565b610c9981610c87565b82525050565b5f602082019050610cb25f830184610c90565b92915050565b5f819050919050565b610cca81610cb8565b82525050565b5f602082019050610ce35f830184610cc1565b92915050565b5f73ffffffffffffffffffffffffffffffffffffffff82169050919050565b5f610d1282610ce9565b9050919050565b610d2281610d08565b82525050565b5f602082019050610d3b5f830184610d19565b92915050565b610d4a81610c87565b8114610d54575f80fd5b50565b5f81359050610d6581610d41565b92915050565b5f60208284031215610d8057610d7f610afc565b5b5f610d8d84828501610d57565b91505092915050565b610d9f81610cb8565b8114610da9575f80fd5b50565b5f81359050610dba81610d96565b92915050565b5f8060408385031215610dd657610dd5610afc565b5b5f610de385828601610d57565b9250506020610df485828601610dac565b9150509250929050565b5f8115159050919050565b610e1281610dfe565b82525050565b5f602082019050610e2b5f830184610e09565b92915050565b5f60208284031215610e4657610e45610afc565b5b5f610e5384828501610dac565b91505092915050565b610e6581610c87565b82525050565b610e7481610cb8565b82525050565b610e8381610d08565b82525050565b608082015f820151610e9d5f850182610e5c565b506020820151610eb06020850182610e5c565b506040820151610ec36040850182610e6b565b506060820151610ed66060850182610e7a565b50505050565b5f608082019050610eef5f830184610e89565b92915050565b610efe81610d08565b8114610f08575f80fd5b50565b5f81359050610f1981610ef5565b92915050565b5f60208284031215610f3457610f33610afc565b5b5f610f4184828501610f0b565b91505092915050565b5f80fd5b5f80fd5b5f8083601f840112610f6757610f66610b04565b5b8235905067ffffffffffffffff811115610f8457610f83610f4a565b5b602083019150836020820283011115610fa057610f9f610f4e565b5b9250929050565b5f8060208385031215610fbd57610fbc610afc565b5b5f83013567ffffffffffffffff811115610fda57610fd9610b00565b5b610fe685828601610f52565b92509250509250929050565b5f81519050919050565b5f81905092915050565b5f5b83811015611023578082015181840152602081019050611008565b5f8484015250505050565b5f61103882610ff2565b6110428185610ffc565b9350611052818560208601611006565b80840191505092915050565b5f611069828461102e565b915081905092915050565b5f8151905061108281610d41565b92915050565b5f6020828403121561109d5761109c610afc565b5b5f6110aa84828501611074565b91505092915050565b5f82825260208201905092915050565b7f446f63756d656e7452656769737472793a20686173682063616e6e6f742062655f8201527f207a65726f000000000000000000000000000000000000000000000000000000602082015250565b5f61111d6025836110b3565b9150611128826110c3565b604082019050919050565b5f6020820190508181035f83015261114a81611111565b9050919050565b7f446f63756d656e7452656769737472793a20646f63756d656e7420616c7265615f8201527f6479207265676973746572656400000000000000000000000000000000000000602082015250565b5f6111ab602d836110b3565b91506111b682611151565b604082019050919050565b5f6020820190508181035f8301526111d88161119f565b9050919050565b5f819050919050565b6111f96111f482610c87565b6111df565b82525050565b5f819050919050565b61121961121482610cb8565b6111ff565b82525050565b5f61122a82866111e8565b60208201915061123a8285611208565b60208201915061124a8284611208565b602082019150819050949350505050565b5f60408201905061126e5f830185610cc1565b61127b6020830184610d19565b9392505050565b7f446f63756d656e7452656769737472793a20696e76616c6964205257412049445f82015250565b5f6112b66020836110b3565b91506112c182611282565b602082019050919050565b5f6020820190508181035f8301526112e3816112aa565b9050919050565b7f446f63756d656e7452656769737472793a206e6f20646f63756d656e7420746f5f8201527f2075706461746500000000000000000000000000000000000000000000000000602082015250565b5f6113446027836110b3565b915061134f826112ea565b604082019050919050565b5f6020820190508181035f83015261137181611338565b9050919050565b7f446f63756d656e7452656769737472793a20646f63756d656e74206e6f7420665f8201527f6f756e6400000000000000000000000000000000000000000000000000000000602082015250565b5f6113d26024836110b3565b91506113dd82611378565b604082019050919050565b5f6020820190508181035f8301526113ff816113c6565b9050919050565b5f81905092915050565b5f80fd5b82818337505050565b5f6114288385611406565b93507f07ffffffffffffffffffffffffffffffffffffffffffffffffffffffffffffff83111561145b5761145a611410565b5b60208302925061146c838584611414565b82840190509392505050565b5f61148482858761141d565b91506114908284611208565b602082019150819050949350505050565b7f4e487b71000000000000000000000000000000000000000000000000000000005f52603260045260245ffd5b5f6114d982856111e8565b6020820191506114e98284611208565b602082019150819050939250505056fea26469706673582212201bd9b46b757362a1901aaf0e06334f2c0c5ddac3923cc8f925478d6e482dd58364736f6c63430008180033","linkReferences":{}},"methodIdentifiers":{"blockNumber()":"57e871e7","blocks(uint256)":"f25b3f99","commitBlock(bytes32,bytes32)":"abfafdbe","documentRegistry()":"a4a1160f","getDocumentRecord()":"706231b2","lastStateRoot()":"b70de0d9","owner()":"8da5cb5b","registerDocument(bytes32)":"9b131974","renounceOwnership()":"715018a6","requestTokenization(uint256,bytes32)":"9b4ffa00","transferOwnership(address)":"f2fde38b","verifyDocumentInclusion(bytes32,uint256)":"18332cc2"},"id":24}