{"abi":[{"type":"constructor","inputs":[{"name":"underlyingAsset_","type":"address","internalType":"address"},{"name":"assetToken_","type":"address","internalType":"address"}],"stateMutability":"nonpayable"},{"type":"function","name":"allowance","inputs":[{"name":"owner","type":"address","internalType":"address"},{"name":"spender","type":"address","internalType":"address"}],"outputs":[{"name":"","type":"uint256","internalType":"uint256"}],"stateMutability":"view"},{"type":"function","name":"approve","inputs":[{"name":"spender","type":"address","internalType":"address"},{"name":"value","type":"uint256","internalType":"uint256"}],"outputs":[{"name":"","type":"bool","internalType":"bool"}],"stateMutability":"nonpayable"},{"type":"function","name":"assetToken","inputs":[],"outputs":[{"name":"","type":"address","internalType":"contract AssetToken"}],"stateMutability":"view"},{"type":"function","name":"balanceOf","inputs":[{"name":"account","type":"address","internalType":"address"}],"outputs":[{"name":"","type":"uint256","internalType":"uint256"}],"stateMutability":"view"},{"type":"function","name":"convertToAssets","inputs":[{"name":"shares","type":"uint256","internalType":"uint256"}],"outputs":[{"name":"","type":"uint256","internalType":"uint256"}],"stateMutability":"pure"},{"type":"function","name":"convertToShare","inputs":[{"name":"assets","type":"uint256","internalType":"uint256"}],"outputs":[{"name":"","type":"uint256","internalType":"uint256"}],"stateMutability":"pure"},{"type":"function","name":"decimals","inputs":[],"outputs":[{"name":"","type":"uint8","internalType":"uint8"}],"stateMutability":"view"},{"type":"function","name":"deposit","inputs":[{"name":"assets","type":"uint256","internalType":"uint256"},{"name":"receiver","type":"address","internalType":"address"}],"outputs":[{"name":"shares","type":"uint256","internalType":"uint256"}],"stateMutability":"nonpayable"},{"type":"function","name":"getToAssets","inputs":[],"outputs":[{"name":"","type":"uint256","internalType":"uint256"}],"stateMutability":"view"},{"type":"function","name":"getTotalAssets","inputs":[],"outputs":[{"name":"","type":"uint256","internalType":"uint256"}],"stateMutability":"view"},{"type":"function","name":"name","inputs":[],"outputs":[{"name":"","type":"string","internalType":"string"}],"stateMutability":"view"},{"type":"function","name":"owner","inputs":[],"outputs":[{"name":"","type":"address","internalType":"address"}],"stateMutability":"view"},{"type":"function","name":"registerYield","inputs":[{"name":"amount","type":"uint256","internalType":"uint256"}],"outputs":[],"stateMutability":"nonpayable"},{"type":"function","name":"renounceOwnership","inputs":[],"outputs":[],"stateMutability":"nonpayable"},{"type":"function","name":"symbol","inputs":[],"outputs":[{"name":"","type":"string","internalType":"string"}],"stateMutability":"view"},{"type":"function","name":"totalSupply","inputs":[],"outputs":[{"name":"","type":"uint256","internalType":"uint256"}],"stateMutability":"view"},{"type":"function","name":"transfer","inputs":[{"name":"to","type":"address","internalType":"address"},{"name":"value","type":"uint256","internalType":"uint256"}],"outputs":[{"name":"","type":"bool","internalType":"bool"}],"stateMutability":"nonpayable"},{"type":"function","name":"transferFrom","inputs":[{"name":"from","type":"address","internalType":"address"},{"name":"to","type":"address","internalType":"address"},{"name":"value","type":"uint256","internalType":"uint256"}],"outputs":[{"name":"","type":"bool","internalType":"bool"}],"stateMutability":"nonpayable"},{"type":"function","name":"transferOwnership","inputs":[{"name":"newOwner","type":"address","internalType":"address"}],"outputs":[],"stateMutability":"nonpayable"},{"type":"function","name":"underlyingAsset","inputs":[],"outputs":[{"name":"","type":"address","internalType":"address"}],"stateMutability":"view"},{"type":"function","name":"withdraw","inputs":[{"name":"assets","type":"uint256","internalType":"uint256"},{"name":"receiver","type":"address","internalType":"address"},{"name":"owner","type":"address","internalType":"address"}],"outputs":[{"name":"shares","type":"uint256","internalType":"uint256"}],"stateMutability":"nonpayable"},{"type":"event","name":"Approval","inputs":[{"name":"owner","type":"address","indexed":true,"internalType":"address"},{"name":"spender","type":"address","indexed":true,"internalType":"address"},{"name":"value","type":"uint256","indexed":false,"internalType":"uint256"}],"anonymous":false},{"type":"event","name":"Deposit","inputs":[{"name":"sender","type":"address","indexed":true,"internalType":"address"},{"name":"owner","type":"address","indexed":true,"internalType":"address"},{"name":"assets","type":"uint256","indexed":false,"internalType":"uint256"},{"name":"shares","type":"uint256","indexed":false,"internalType":"uint256"}],"anonymous":false},{"type":"event","name":"OwnershipTransferred","inputs":[{"name":"previousOwner","type":"address","indexed":true,"internalType":"address"},{"name":"newOwner","type":"address","indexed":true,"internalType":"address"}],"anonymous":false},{"type":"event","name":"Transfer","inputs":[{"name":"from","type":"address","indexed":true,"internalType":"address"},{"name":"to","type":"address","indexed":true,"internalType":"address"},{"name":"value","type":"uint256","indexed":false,"internalType":"uint256"}],"anonymous":false},{"type":"event","name":"Withdraw","inputs":[{"name":"sender","type":"address","indexed":true,"internalType":"address"},{"name":"receiver","type":"address","indexed":true,"internalType":"address"},{"name":"owner","type":"address","indexed":true,"internalType":"address"},{"name":"assets","type":"uint256","indexed":false,"internalType":"uint256"},{"name":"shares","type":"uint256","indexed":false,"internalType":"uint256"}],"anonymous":false},{"type":"event","name":"YieldRegistered","inputs":[{"name":"amount","type":"uint256","indexed":false,"internalType":"uint256"}],"anonymous":false},{"type":"error","name":"ERC20InsufficientAllowance","inputs":[{"name":"spender","type":"address","internalType":"address"},{"name":"allowance","type":"uint256","internalType":"uint256"},{"name":"needed","type":"uint256","internalType":"uint256"}]},{"type":"error","name":"ERC20InsufficientBalance","inputs":[{"name":"sender","type":"address","internalType":"address"},{"name":"balance","type":"uint256","internalType":"uint256"},{"name":"needed","type":"uint256","internalType":"uint256"}]},{"type":"error","name":"ERC20InvalidApprover","inputs":[{"name":"approver","type":"address","internalType":"address"}]},{"type":"error","name":"ERC20InvalidReceiver","inputs":[{"name":"receiver","type":"address","internalType":"address"}]},{"type":"error","name":"ERC20InvalidSender","inputs":[{"name":"sender","type":"address","internalType":"address"}]},{"type":"error","name":"ERC20InvalidSpender","inputs":[{"name":"spender","type":"address","internalType":"address"}]},{"type":"error","name":"OwnableInvalidOwner","inputs":[{"name":"owner","type":"address","internalType":"address"}]},{"type":"error","name":"OwnableUnauthorizedAccount","inputs":[{"name":"account","type":"address","internalType":"address"}]}],"bytecode":{"object":"0x60c060405234801562000010575f80fd5b5060405162002446380380620024468339818101604052810190620000369190620003c8565b336040518060400160405280601081526020017f525741205661756c7420536861726573000000000000000000000000000000008152506040518060400160405280600681526020017f72776153485200000000000000000000000000000000000000000000000000008152508160039081620000b4919062000671565b508060049081620000c6919062000671565b5050505f73ffffffffffffffffffffffffffffffffffffffff168173ffffffffffffffffffffffffffffffffffffffff16036200013c575f6040517f1e4fbdf700000000000000000000000000000000000000000000000000000000815260040162000133919062000766565b60405180910390fd5b6200014d81620002a060201b60201c565b505f73ffffffffffffffffffffffffffffffffffffffff168273ffffffffffffffffffffffffffffffffffffffff1603620001bf576040517f08c379a0000000000000000000000000000000000000000000000000000000008152600401620001b69062000805565b60405180910390fd5b5f73ffffffffffffffffffffffffffffffffffffffff168173ffffffffffffffffffffffffffffffffffffffff160362000230576040517f08c379a0000000000000000000000000000000000000000000000000000000008152600401620002279062000899565b60405180910390fd5b8173ffffffffffffffffffffffffffffffffffffffff1660a08173ffffffffffffffffffffffffffffffffffffffff16815250508073ffffffffffffffffffffffffffffffffffffffff1660808173ffffffffffffffffffffffffffffffffffffffff16815250505050620008b9565b5f60055f9054906101000a900473ffffffffffffffffffffffffffffffffffffffff1690508160055f6101000a81548173ffffffffffffffffffffffffffffffffffffffff021916908373ffffffffffffffffffffffffffffffffffffffff1602179055508173ffffffffffffffffffffffffffffffffffffffff168173ffffffffffffffffffffffffffffffffffffffff167f8be0079c531659141344cd1fd0a4f28419497f9722a3daafe3b4186f6b6457e060405160405180910390a35050565b5f80fd5b5f73ffffffffffffffffffffffffffffffffffffffff82169050919050565b5f620003928262000367565b9050919050565b620003a48162000386565b8114620003af575f80fd5b50565b5f81519050620003c28162000399565b92915050565b5f8060408385031215620003e157620003e062000363565b5b5f620003f085828601620003b2565b92505060206200040385828601620003b2565b9150509250929050565b5f81519050919050565b7f4e487b71000000000000000000000000000000000000000000000000000000005f52604160045260245ffd5b7f4e487b71000000000000000000000000000000000000000000000000000000005f52602260045260245ffd5b5f60028204905060018216806200048957607f821691505b6020821081036200049f576200049e62000444565b5b50919050565b5f819050815f5260205f209050919050565b5f6020601f8301049050919050565b5f82821b905092915050565b5f60088302620005037fffffffffffffffffffffffffffffffffffffffffffffffffffffffffffffffff82620004c6565b6200050f8683620004c6565b95508019841693508086168417925050509392505050565b5f819050919050565b5f819050919050565b5f62000559620005536200054d8462000527565b62000530565b62000527565b9050919050565b5f819050919050565b620005748362000539565b6200058c620005838262000560565b848454620004d2565b825550505050565b5f90565b620005a262000594565b620005af81848462000569565b505050565b5b81811015620005d657620005ca5f8262000598565b600181019050620005b5565b5050565b601f8211156200062557620005ef81620004a5565b620005fa84620004b7565b810160208510156200060a578190505b620006226200061985620004b7565b830182620005b4565b50505b505050565b5f82821c905092915050565b5f620006475f19846008026200062a565b1980831691505092915050565b5f62000661838362000636565b9150826002028217905092915050565b6200067c826200040d565b67ffffffffffffffff81111562000698576200069762000417565b5b620006a4825462000471565b620006b1828285620005da565b5f60209050601f831160018114620006e7575f8415620006d2578287015190505b620006de858262000654565b8655506200074d565b601f198416620006f786620004a5565b5f5b828110156200072057848901518255600182019150602085019450602081019050620006f9565b868310156200074057848901516200073c601f89168262000636565b8355505b6001600288020188555050505b505050505050565b620007608162000386565b82525050565b5f6020820190506200077b5f83018462000755565b92915050565b5f82825260208201905092915050565b7f5257415661756c743a2061737365742063616e6e6f74206265207a65726f20615f8201527f6464726573730000000000000000000000000000000000000000000000000000602082015250565b5f620007ed60268362000781565b9150620007fa8262000791565b604082019050919050565b5f6020820190508181035f8301526200081e81620007df565b9050919050565b7f5257415661756c743a206173736574546f6b656e2063616e6e6f74206265207a5f8201527f65726f2061646472657373000000000000000000000000000000000000000000602082015250565b5f62000881602b8362000781565b91506200088e8262000825565b604082019050919050565b5f6020820190508181035f830152620008b28162000873565b9050919050565b60805160a051611b64620008e25f395f61069a01525f81816104ff01526107dc0152611b645ff3fe608060405234801561000f575f80fd5b5060043610610135575f3560e01c806370a08231116100b6578063a9059cbb1161007a578063a9059cbb14610341578063b460af9414610371578063d6086fcc146103a1578063dd62ed3e146103bd578063e073ba31146103ed578063f2fde38b1461041d57610135565b806370a08231146102ad578063715018a6146102dd5780637158da7c146102e75780638da5cb5b1461030557806395d89b411461032357610135565b806318160ddd116100fd57806318160ddd146101f357806323b872dd14610211578063313ce567146102415780636e07302b1461025f5780636e553f651461027d57610135565b806306fdde031461013957806307a2d13a14610157578063095ea7b314610187578063101d041d146101b75780631083f761146101d5575b5f80fd5b610141610439565b60405161014e91906113ef565b60405180910390f35b610171600480360381019061016c9190611446565b6104c9565b60405161017e9190611480565b60405180910390f35b6101a1600480360381019061019c91906114f3565b6104d2565b6040516101ae919061154b565b60405180910390f35b6101bf6104f4565b6040516101cc9190611480565b60405180910390f35b6101dd6104fd565b6040516101ea91906115bf565b60405180910390f35b6101fb610521565b6040516102089190611480565b60405180910390f35b61022b600480360381019061022691906115d8565b61052a565b604051610238919061154b565b60405180910390f35b610249610558565b6040516102569190611643565b60405180910390f35b610267610560565b6040516102749190611480565b60405180910390f35b6102976004803603810190610292919061165c565b610569565b6040516102a49190611480565b60405180910390f35b6102c760048036038101906102c2919061169a565b610640565b6040516102d49190611480565b60405180910390f35b6102e5610685565b005b6102ef610698565b6040516102fc91906116d4565b60405180910390f35b61030d6106bc565b60405161031a91906116d4565b60405180910390f35b61032b6106e4565b60405161033891906113ef565b60405180910390f35b61035b600480360381019061035691906114f3565b610774565b604051610368919061154b565b60405180910390f35b61038b600480360381019061038691906116ed565b610796565b6040516103989190611480565b60405180910390f35b6103bb60048036038101906103b69190611446565b6109ec565b005b6103d760048036038101906103d2919061173d565b610a8a565b6040516103e49190611480565b60405180910390f35b61040760048036038101906104029190611446565b610b0c565b6040516104149190611480565b60405180910390f35b6104376004803603810190610432919061169a565b610b15565b005b606060038054610448906117a8565b80601f0160208091040260200160405190810160405280929190818152602001828054610474906117a8565b80156104bf5780601f10610496576101008083540402835291602001916104bf565b820191905f5260205f20905b8154815290600101906020018083116104a257829003601f168201915b5050505050905090565b5f819050919050565b5f806104dc610b99565b90506104e9818585610ba0565b600191505092915050565b5f600654905090565b7f000000000000000000000000000000000000000000000000000000000000000081565b5f600254905090565b5f80610534610b99565b9050610541858285610bb2565b61054c858585610c45565b60019150509392505050565b5f6012905090565b5f600654905090565b5f825f81116105ad576040517f08c379a00000000000000000000000000000000000000000000000000000000081526004016105a490611848565b60405180910390fd5b8391508360065f8282546105c19190611893565b925050819055506105d28383610d35565b8273ffffffffffffffffffffffffffffffffffffffff163373ffffffffffffffffffffffffffffffffffffffff167fdcbc1c05240f31ff3ad067ef1ee35ce4997762752e3a095284754544f4c709d786856040516106319291906118c6565b60405180910390a35092915050565b5f805f8373ffffffffffffffffffffffffffffffffffffffff1673ffffffffffffffffffffffffffffffffffffffff1681526020019081526020015f20549050919050565b61068d610db4565b6106965f610e3b565b565b7f000000000000000000000000000000000000000000000000000000000000000081565b5f60055f9054906101000a900473ffffffffffffffffffffffffffffffffffffffff16905090565b6060600480546106f3906117a8565b80601f016020809104026020016040519081016040528092919081815260200182805461071f906117a8565b801561076a5780601f106107415761010080835404028352916020019161076a565b820191905f5260205f20905b81548152906001019060200180831161074d57829003601f168201915b5050505050905090565b5f8061077e610b99565b905061078b818585610c45565b600191505092915050565b5f835f81116107da576040517f08c379a00000000000000000000000000000000000000000000000000000000081526004016107d190611848565b60405180910390fd5b7f000000000000000000000000000000000000000000000000000000000000000073ffffffffffffffffffffffffffffffffffffffff16635b229d3a336040518263ffffffff1660e01b815260040161083391906116d4565b602060405180830381865afa15801561084e573d5f803e3d5ffd5b505050506040513d601f19601f820116820180604052508101906108729190611917565b6108b1576040517f08c379a00000000000000000000000000000000000000000000000000000000081526004016108a8906119b2565b60405180910390fd5b6006548511156108f6576040517f08c379a00000000000000000000000000000000000000000000000000000000081526004016108ed90611a40565b60405180910390fd5b84915061090283610640565b821115610944576040517f08c379a000000000000000000000000000000000000000000000000000000000815260040161093b90611aa8565b60405180910390fd5b8460065f8282546109559190611ac6565b925050819055506109668383610efe565b8273ffffffffffffffffffffffffffffffffffffffff168473ffffffffffffffffffffffffffffffffffffffff163373ffffffffffffffffffffffffffffffffffffffff167ffbde797d201c681b91056529119e0b02407c7bb96a4a2c75c01fc9667232c8db88866040516109dc9291906118c6565b60405180910390a4509392505050565b6109f4610db4565b805f8111610a37576040517f08c379a0000000000000000000000000000000000000000000000000000000008152600401610a2e90611848565b60405180910390fd5b8160065f828254610a489190611893565b925050819055507f43daca73b5d7d8301a60bad34cc00acaa572a33e96806a11df410c1f8a266c8482604051610a7e9190611480565b60405180910390a15050565b5f60015f8473ffffffffffffffffffffffffffffffffffffffff1673ffffffffffffffffffffffffffffffffffffffff1681526020019081526020015f205f8373ffffffffffffffffffffffffffffffffffffffff1673ffffffffffffffffffffffffffffffffffffffff1681526020019081526020015f2054905092915050565b5f819050919050565b610b1d610db4565b5f73ffffffffffffffffffffffffffffffffffffffff168173ffffffffffffffffffffffffffffffffffffffff1603610b8d575f6040517f1e4fbdf7000000000000000000000000000000000000000000000000000000008152600401610b8491906116d4565b60405180910390fd5b610b9681610e3b565b50565b5f33905090565b610bad8383836001610f7d565b505050565b5f610bbd8484610a8a565b90507fffffffffffffffffffffffffffffffffffffffffffffffffffffffffffffffff811015610c3f5781811015610c30578281836040517ffb8f41b2000000000000000000000000000000000000000000000000000000008152600401610c2793929190611af9565b60405180910390fd5b610c3e84848484035f610f7d565b5b50505050565b5f73ffffffffffffffffffffffffffffffffffffffff168373ffffffffffffffffffffffffffffffffffffffff1603610cb5575f6040517f96c6fd1e000000000000000000000000000000000000000000000000000000008152600401610cac91906116d4565b60405180910390fd5b5f73ffffffffffffffffffffffffffffffffffffffff168273ffffffffffffffffffffffffffffffffffffffff1603610d25575f6040517fec442f05000000000000000000000000000000000000000000000000000000008152600401610d1c91906116d4565b60405180910390fd5b610d3083838361114c565b505050565b5f73ffffffffffffffffffffffffffffffffffffffff168273ffffffffffffffffffffffffffffffffffffffff1603610da5575f6040517fec442f05000000000000000000000000000000000000000000000000000000008152600401610d9c91906116d4565b60405180910390fd5b610db05f838361114c565b5050565b610dbc610b99565b73ffffffffffffffffffffffffffffffffffffffff16610dda6106bc565b73ffffffffffffffffffffffffffffffffffffffff1614610e3957610dfd610b99565b6040517f118cdaa7000000000000000000000000000000000000000000000000000000008152600401610e3091906116d4565b60405180910390fd5b565b5f60055f9054906101000a900473ffffffffffffffffffffffffffffffffffffffff1690508160055f6101000a81548173ffffffffffffffffffffffffffffffffffffffff021916908373ffffffffffffffffffffffffffffffffffffffff1602179055508173ffffffffffffffffffffffffffffffffffffffff168173ffffffffffffffffffffffffffffffffffffffff167f8be0079c531659141344cd1fd0a4f28419497f9722a3daafe3b4186f6b6457e060405160405180910390a35050565b5f73ffffffffffffffffffffffffffffffffffffffff168273ffffffffffffffffffffffffffffffffffffffff1603610f6e575f6040517f96c6fd1e000000000000000000000000000000000000000000000000000000008152600401610f6591906116d4565b60405180910390fd5b610f79825f8361114c565b5050565b5f73ffffffffffffffffffffffffffffffffffffffff168473ffffffffffffffffffffffffffffffffffffffff1603610fed575f6040517fe602df05000000000000000000000000000000000000000000000000000000008152600401610fe491906116d4565b60405180910390fd5b5f73ffffffffffffffffffffffffffffffffffffffff168373ffffffffffffffffffffffffffffffffffffffff160361105d575f6040517f94280d6200000000000000000000000000000000000000000000000000000000815260040161105491906116d4565b60405180910390fd5b8160015f8673ffffffffffffffffffffffffffffffffffffffff1673ffffffffffffffffffffffffffffffffffffffff1681526020019081526020015f205f8573ffffffffffffffffffffffffffffffffffffffff1673ffffffffffffffffffffffffffffffffffffffff1681526020019081526020015f20819055508015611146578273ffffffffffffffffffffffffffffffffffffffff168473ffffffffffffffffffffffffffffffffffffffff167f8c5be1e5ebec7d5bd14f71427d1e84f3dd0314c0f7b2291e5b200ac8c7c3b9258460405161113d9190611480565b60405180910390a35b50505050565b5f73ffffffffffffffffffffffffffffffffffffffff168373ffffffffffffffffffffffffffffffffffffffff160361119c578060025f8282546111909190611893565b9250508190555061126a565b5f805f8573ffffffffffffffffffffffffffffffffffffffff1673ffffffffffffffffffffffffffffffffffffffff1681526020019081526020015f2054905081811015611225578381836040517fe450d38c00000000000000000000000000000000000000000000000000000000815260040161121c93929190611af9565b60405180910390fd5b8181035f808673ffffffffffffffffffffffffffffffffffffffff1673ffffffffffffffffffffffffffffffffffffffff1681526020019081526020015f2081905550505b5f73ffffffffffffffffffffffffffffffffffffffff168273ffffffffffffffffffffffffffffffffffffffff16036112b1578060025f82825403925050819055506112fb565b805f808473ffffffffffffffffffffffffffffffffffffffff1673ffffffffffffffffffffffffffffffffffffffff1681526020019081526020015f205f82825401925050819055505b8173ffffffffffffffffffffffffffffffffffffffff168373ffffffffffffffffffffffffffffffffffffffff167fddf252ad1be2c89b69c2b068fc378daa952ba7f163c4a11628f55a4df523b3ef836040516113589190611480565b60405180910390a3505050565b5f81519050919050565b5f82825260208201905092915050565b5f5b8381101561139c578082015181840152602081019050611381565b5f8484015250505050565b5f601f19601f8301169050919050565b5f6113c182611365565b6113cb818561136f565b93506113db81856020860161137f565b6113e4816113a7565b840191505092915050565b5f6020820190508181035f83015261140781846113b7565b905092915050565b5f80fd5b5f819050919050565b61142581611413565b811461142f575f80fd5b50565b5f813590506114408161141c565b92915050565b5f6020828403121561145b5761145a61140f565b5b5f61146884828501611432565b91505092915050565b61147a81611413565b82525050565b5f6020820190506114935f830184611471565b92915050565b5f73ffffffffffffffffffffffffffffffffffffffff82169050919050565b5f6114c282611499565b9050919050565b6114d2816114b8565b81146114dc575f80fd5b50565b5f813590506114ed816114c9565b92915050565b5f80604083850312156115095761150861140f565b5b5f611516858286016114df565b925050602061152785828601611432565b9150509250929050565b5f8115159050919050565b61154581611531565b82525050565b5f60208201905061155e5f83018461153c565b92915050565b5f819050919050565b5f61158761158261157d84611499565b611564565b611499565b9050919050565b5f6115988261156d565b9050919050565b5f6115a98261158e565b9050919050565b6115b98161159f565b82525050565b5f6020820190506115d25f8301846115b0565b92915050565b5f805f606084860312156115ef576115ee61140f565b5b5f6115fc868287016114df565b935050602061160d868287016114df565b925050604061161e86828701611432565b9150509250925092565b5f60ff82169050919050565b61163d81611628565b82525050565b5f6020820190506116565f830184611634565b92915050565b5f80604083850312156116725761167161140f565b5b5f61167f85828601611432565b9250506020611690858286016114df565b9150509250929050565b5f602082840312156116af576116ae61140f565b5b5f6116bc848285016114df565b91505092915050565b6116ce816114b8565b82525050565b5f6020820190506116e75f8301846116c5565b92915050565b5f805f606084860312156117045761170361140f565b5b5f61171186828701611432565b9350506020611722868287016114df565b9250506040611733868287016114df565b9150509250925092565b5f80604083850312156117535761175261140f565b5b5f611760858286016114df565b9250506020611771858286016114df565b9150509250929050565b7f4e487b71000000000000000000000000000000000000000000000000000000005f52602260045260245ffd5b5f60028204905060018216806117bf57607f821691505b6020821081036117d2576117d161177b565b5b50919050565b7f5257415661756c743a20616d6f756e74206d75737420626520677265617465725f8201527f207468616e207a65726f00000000000000000000000000000000000000000000602082015250565b5f611832602a8361136f565b915061183d826117d8565b604082019050919050565b5f6020820190508181035f83015261185f81611826565b9050919050565b7f4e487b71000000000000000000000000000000000000000000000000000000005f52601160045260245ffd5b5f61189d82611413565b91506118a883611413565b92508282019050808211156118c0576118bf611866565b5b92915050565b5f6040820190506118d95f830185611471565b6118e66020830184611471565b9392505050565b6118f681611531565b8114611900575f80fd5b50565b5f81519050611911816118ed565b92915050565b5f6020828403121561192c5761192b61140f565b5b5f61193984828501611903565b91505092915050565b7f5257415661756c743a2063616c6c6572206973206e6f742052574120746f6b655f8201527f6e206f776e657200000000000000000000000000000000000000000000000000602082015250565b5f61199c60278361136f565b91506119a782611942565b604082019050919050565b5f6020820190508181035f8301526119c981611990565b9050919050565b7f5257415661756c743a20696e73756666696369656e74207661756c74206173735f8201527f6574730000000000000000000000000000000000000000000000000000000000602082015250565b5f611a2a60238361136f565b9150611a35826119d0565b604082019050919050565b5f6020820190508181035f830152611a5781611a1e565b9050919050565b7f5257415661756c743a20696e73756666696369656e74207368617265730000005f82015250565b5f611a92601d8361136f565b9150611a9d82611a5e565b602082019050919050565b5f6020820190508181035f830152611abf81611a86565b9050919050565b5f611ad082611413565b9150611adb83611413565b9250828203905081811115611af357611af2611866565b5b92915050565b5f606082019050611b0c5f8301866116c5565b611b196020830185611471565b611b266040830184611471565b94935050505056fea2646970667358221220adf64081daa7028ed18e64e9f9c8d6119a1641f091f7a3e1c9fe56c24cc1bb4e64736f6c63430008180033","linkReferences":{}},"methodIdentifiers":{"allowance(address,address)":"dd62ed3e","approve(address,uint256)":"095ea7b3","assetToken()":"1083f761","balanceOf(address)":"70a08231","convertToAssets(uint256)":"07a2d13a","convertToShare(uint256)":"e073ba31","decimals()":"313ce567","deposit(uint256,address)":"6e553f65","getToAssets()":"101d041d","getTotalAssets()":"6e07302b","name()":"06fdde03","owner()":"8da5cb5b","registerYield(uint256)":"d6086fcc","renounceOwnership()":"715018a6","symbol()":"95d89b41","totalSupply()":"18160ddd","transfer(address,uint256)":"a9059cbb","transferFrom(address,address,uint256)":"23b872dd","transferOwnership(address)":"f2fde38b","underlyingAsset()":"7158da7c","withdraw(uint256,address,address)":"b460af94"},"id":42}